{
  "contractName": "MaestroToken",
  "abi": [
    {
      "constant": true,
      "inputs": [],
      "name": "mintingFinished",
      "outputs": [
        {
          "name": "",
          "type": "bool"
        }
      ],
      "payable": false,
      "stateMutability": "view",
      "type": "function"
    },
    {
      "constant": true,
      "inputs": [],
      "name": "name",
      "outputs": [
        {
          "name": "",
          "type": "string"
        }
      ],
      "payable": false,
      "stateMutability": "view",
      "type": "function"
    },
    {
      "constant": false,
      "inputs": [
        {
          "name": "_spender",
          "type": "address"
        },
        {
          "name": "_value",
          "type": "uint256"
        }
      ],
      "name": "approve",
      "outputs": [
        {
          "name": "",
          "type": "bool"
        }
      ],
      "payable": false,
      "stateMutability": "nonpayable",
      "type": "function"
    },
    {
      "constant": true,
      "inputs": [],
      "name": "totalSupply",
      "outputs": [
        {
          "name": "",
          "type": "uint256"
        }
      ],
      "payable": false,
      "stateMutability": "view",
      "type": "function"
    },
    {
      "constant": true,
      "inputs": [],
      "name": "releaseDateTeam",
      "outputs": [
        {
          "name": "",
          "type": "uint256"
        }
      ],
      "payable": false,
      "stateMutability": "view",
      "type": "function"
    },
    {
      "constant": true,
      "inputs": [],
      "name": "decimals",
      "outputs": [
        {
          "name": "",
          "type": "uint8"
        }
      ],
      "payable": false,
      "stateMutability": "view",
      "type": "function"
    },
    {
      "constant": true,
      "inputs": [],
      "name": "initialSupply",
      "outputs": [
        {
          "name": "",
          "type": "uint256"
        }
      ],
      "payable": false,
      "stateMutability": "view",
      "type": "function"
    },
    {
      "constant": true,
      "inputs": [],
      "name": "lockupDurationS1",
      "outputs": [
        {
          "name": "",
          "type": "uint256"
        }
      ],
      "payable": false,
      "stateMutability": "view",
      "type": "function"
    },
    {
      "constant": true,
      "inputs": [],
      "name": "lockupDurationTeam",
      "outputs": [
        {
          "name": "",
          "type": "uint256"
        }
      ],
      "payable": false,
      "stateMutability": "view",
      "type": "function"
    },
    {
      "constant": false,
      "inputs": [
        {
          "name": "_to",
          "type": "address"
        },
        {
          "name": "_amount",
          "type": "uint256"
        }
      ],
      "name": "mint",
      "outputs": [
        {
          "name": "",
          "type": "bool"
        }
      ],
      "payable": false,
      "stateMutability": "nonpayable",
      "type": "function"
    },
    {
      "constant": false,
      "inputs": [
        {
          "name": "_value",
          "type": "uint256"
        }
      ],
      "name": "burn",
      "outputs": [],
      "payable": false,
      "stateMutability": "nonpayable",
      "type": "function"
    },
    {
      "constant": true,
      "inputs": [],
      "name": "crowdsaleS2Flag",
      "outputs": [
        {
          "name": "",
          "type": "bool"
        }
      ],
      "payable": false,
      "stateMutability": "view",
      "type": "function"
    },
    {
      "constant": true,
      "inputs": [],
      "name": "standard",
      "outputs": [
        {
          "name": "",
          "type": "string"
        }
      ],
      "payable": false,
      "stateMutability": "view",
      "type": "function"
    },
    {
      "constant": false,
      "inputs": [
        {
          "name": "_spender",
          "type": "address"
        },
        {
          "name": "_subtractedValue",
          "type": "uint256"
        }
      ],
      "name": "decreaseApproval",
      "outputs": [
        {
          "name": "",
          "type": "bool"
        }
      ],
      "payable": false,
      "stateMutability": "nonpayable",
      "type": "function"
    },
    {
      "constant": true,
      "inputs": [
        {
          "name": "_owner",
          "type": "address"
        }
      ],
      "name": "balanceOf",
      "outputs": [
        {
          "name": "balance",
          "type": "uint256"
        }
      ],
      "payable": false,
      "stateMutability": "view",
      "type": "function"
    },
    {
      "constant": true,
      "inputs": [],
      "name": "BONUS_S2",
      "outputs": [
        {
          "name": "",
          "type": "uint256"
        }
      ],
      "payable": false,
      "stateMutability": "view",
      "type": "function"
    },
    {
      "constant": false,
      "inputs": [],
      "name": "finishMinting",
      "outputs": [
        {
          "name": "",
          "type": "bool"
        }
      ],
      "payable": false,
      "stateMutability": "nonpayable",
      "type": "function"
    },
    {
      "constant": true,
      "inputs": [],
      "name": "BONUS_S3",
      "outputs": [
        {
          "name": "",
          "type": "uint256"
        }
      ],
      "payable": false,
      "stateMutability": "view",
      "type": "function"
    },
    {
      "constant": true,
      "inputs": [],
      "name": "releaseDateS1",
      "outputs": [
        {
          "name": "",
          "type": "uint256"
        }
      ],
      "payable": false,
      "stateMutability": "view",
      "type": "function"
    },
    {
      "constant": true,
      "inputs": [],
      "name": "owner",
      "outputs": [
        {
          "name": "",
          "type": "address"
        }
      ],
      "payable": false,
      "stateMutability": "view",
      "type": "function"
    },
    {
      "constant": true,
      "inputs": [],
      "name": "symbol",
      "outputs": [
        {
          "name": "",
          "type": "string"
        }
      ],
      "payable": false,
      "stateMutability": "view",
      "type": "function"
    },
    {
      "constant": true,
      "inputs": [],
      "name": "lockupDurationS2",
      "outputs": [
        {
          "name": "",
          "type": "uint256"
        }
      ],
      "payable": false,
      "stateMutability": "view",
      "type": "function"
    },
    {
      "constant": true,
      "inputs": [],
      "name": "releaseDateS2",
      "outputs": [
        {
          "name": "",
          "type": "uint256"
        }
      ],
      "payable": false,
      "stateMutability": "view",
      "type": "function"
    },
    {
      "constant": true,
      "inputs": [],
      "name": "BONUS_S1",
      "outputs": [
        {
          "name": "",
          "type": "uint256"
        }
      ],
      "payable": false,
      "stateMutability": "view",
      "type": "function"
    },
    {
      "constant": true,
      "inputs": [],
      "name": "crowdsaleS1Flag",
      "outputs": [
        {
          "name": "",
          "type": "bool"
        }
      ],
      "payable": false,
      "stateMutability": "view",
      "type": "function"
    },
    {
      "constant": true,
      "inputs": [],
      "name": "crowdsaleS3Flag",
      "outputs": [
        {
          "name": "",
          "type": "bool"
        }
      ],
      "payable": false,
      "stateMutability": "view",
      "type": "function"
    },
    {
      "constant": false,
      "inputs": [
        {
          "name": "_spender",
          "type": "address"
        },
        {
          "name": "_addedValue",
          "type": "uint256"
        }
      ],
      "name": "increaseApproval",
      "outputs": [
        {
          "name": "",
          "type": "bool"
        }
      ],
      "payable": false,
      "stateMutability": "nonpayable",
      "type": "function"
    },
    {
      "constant": true,
      "inputs": [
        {
          "name": "_owner",
          "type": "address"
        },
        {
          "name": "_spender",
          "type": "address"
        }
      ],
      "name": "allowance",
      "outputs": [
        {
          "name": "",
          "type": "uint256"
        }
      ],
      "payable": false,
      "stateMutability": "view",
      "type": "function"
    },
    {
      "constant": false,
      "inputs": [
        {
          "name": "newOwner",
          "type": "address"
        }
      ],
      "name": "transferOwnership",
      "outputs": [],
      "payable": false,
      "stateMutability": "nonpayable",
      "type": "function"
    },
    {
      "inputs": [
        {
          "name": "_initialSupplyWithoutDecimals",
          "type": "uint256"
        },
        {
          "name": "_lockupDurationS1",
          "type": "uint256"
        },
        {
          "name": "_lockupDurationS2",
          "type": "uint256"
        },
        {
          "name": "_lockupDurationTeam",
          "type": "uint256"
        }
      ],
      "payable": false,
      "stateMutability": "nonpayable",
      "type": "constructor"
    },
    {
      "anonymous": false,
      "inputs": [
        {
          "indexed": true,
          "name": "_tokenHolder",
          "type": "address"
        },
        {
          "indexed": false,
          "name": "_value",
          "type": "uint256"
        }
      ],
      "name": "Lock",
      "type": "event"
    },
    {
      "anonymous": false,
      "inputs": [
        {
          "indexed": true,
          "name": "to",
          "type": "address"
        },
        {
          "indexed": false,
          "name": "amount",
          "type": "uint256"
        }
      ],
      "name": "Mint",
      "type": "event"
    },
    {
      "anonymous": false,
      "inputs": [],
      "name": "MintFinished",
      "type": "event"
    },
    {
      "anonymous": false,
      "inputs": [
        {
          "indexed": true,
          "name": "previousOwner",
          "type": "address"
        },
        {
          "indexed": true,
          "name": "newOwner",
          "type": "address"
        }
      ],
      "name": "OwnershipTransferred",
      "type": "event"
    },
    {
      "anonymous": false,
      "inputs": [
        {
          "indexed": true,
          "name": "burner",
          "type": "address"
        },
        {
          "indexed": false,
          "name": "value",
          "type": "uint256"
        }
      ],
      "name": "Burn",
      "type": "event"
    },
    {
      "anonymous": false,
      "inputs": [
        {
          "indexed": true,
          "name": "owner",
          "type": "address"
        },
        {
          "indexed": true,
          "name": "spender",
          "type": "address"
        },
        {
          "indexed": false,
          "name": "value",
          "type": "uint256"
        }
      ],
      "name": "Approval",
      "type": "event"
    },
    {
      "anonymous": false,
      "inputs": [
        {
          "indexed": true,
          "name": "from",
          "type": "address"
        },
        {
          "indexed": true,
          "name": "to",
          "type": "address"
        },
        {
          "indexed": false,
          "name": "value",
          "type": "uint256"
        }
      ],
      "name": "Transfer",
      "type": "event"
    },
    {
      "constant": false,
      "inputs": [
        {
          "name": "_to",
          "type": "address"
        },
        {
          "name": "_value",
          "type": "uint256"
        }
      ],
      "name": "transfer",
      "outputs": [
        {
          "name": "",
          "type": "bool"
        }
      ],
      "payable": false,
      "stateMutability": "nonpayable",
      "type": "function"
    },
    {
      "constant": false,
      "inputs": [
        {
          "name": "_from",
          "type": "address"
        },
        {
          "name": "_to",
          "type": "address"
        },
        {
          "name": "_value",
          "type": "uint256"
        }
      ],
      "name": "transferFrom",
      "outputs": [
        {
          "name": "",
          "type": "bool"
        }
      ],
      "payable": false,
      "stateMutability": "nonpayable",
      "type": "function"
    },
    {
      "constant": true,
      "inputs": [],
      "name": "getLockupS1",
      "outputs": [
        {
          "name": "",
          "type": "uint256"
        }
      ],
      "payable": false,
      "stateMutability": "view",
      "type": "function"
    },
    {
      "constant": true,
      "inputs": [
        {
          "name": "_owner",
          "type": "address"
        }
      ],
      "name": "getLockupS1OnlyOwner",
      "outputs": [
        {
          "name": "",
          "type": "uint256"
        }
      ],
      "payable": false,
      "stateMutability": "view",
      "type": "function"
    },
    {
      "constant": true,
      "inputs": [],
      "name": "getLockupS2",
      "outputs": [
        {
          "name": "",
          "type": "uint256"
        }
      ],
      "payable": false,
      "stateMutability": "view",
      "type": "function"
    },
    {
      "constant": true,
      "inputs": [
        {
          "name": "_owner",
          "type": "address"
        }
      ],
      "name": "getLockupS2OnlyOwner",
      "outputs": [
        {
          "name": "",
          "type": "uint256"
        }
      ],
      "payable": false,
      "stateMutability": "view",
      "type": "function"
    },
    {
      "constant": true,
      "inputs": [],
      "name": "getLockupTeam",
      "outputs": [
        {
          "name": "",
          "type": "uint256"
        }
      ],
      "payable": false,
      "stateMutability": "view",
      "type": "function"
    },
    {
      "constant": true,
      "inputs": [
        {
          "name": "_owner",
          "type": "address"
        }
      ],
      "name": "getLockupTeamOnlyOwner",
      "outputs": [
        {
          "name": "",
          "type": "uint256"
        }
      ],
      "payable": false,
      "stateMutability": "view",
      "type": "function"
    },
    {
      "constant": true,
      "inputs": [],
      "name": "getCrowdsaleS1Address",
      "outputs": [
        {
          "name": "",
          "type": "address"
        }
      ],
      "payable": false,
      "stateMutability": "view",
      "type": "function"
    },
    {
      "constant": true,
      "inputs": [],
      "name": "getCrowdsaleS2Address",
      "outputs": [
        {
          "name": "",
          "type": "address"
        }
      ],
      "payable": false,
      "stateMutability": "view",
      "type": "function"
    },
    {
      "constant": true,
      "inputs": [],
      "name": "getCrowdsaleS3Address",
      "outputs": [
        {
          "name": "",
          "type": "address"
        }
      ],
      "payable": false,
      "stateMutability": "view",
      "type": "function"
    },
    {
      "constant": false,
      "inputs": [
        {
          "name": "_address",
          "type": "address"
        }
      ],
      "name": "setCrowdsaleS1",
      "outputs": [],
      "payable": false,
      "stateMutability": "nonpayable",
      "type": "function"
    },
    {
      "constant": false,
      "inputs": [
        {
          "name": "_address",
          "type": "address"
        }
      ],
      "name": "setCrowdsaleS2",
      "outputs": [],
      "payable": false,
      "stateMutability": "nonpayable",
      "type": "function"
    },
    {
      "constant": false,
      "inputs": [
        {
          "name": "_address",
          "type": "address"
        }
      ],
      "name": "setCrowdsaleS3",
      "outputs": [],
      "payable": false,
      "stateMutability": "nonpayable",
      "type": "function"
    },
    {
      "constant": false,
      "inputs": [
        {
          "name": "_beneficiary",
          "type": "address"
        },
        {
          "name": "_amount",
          "type": "uint256"
        }
      ],
      "name": "transferAndLock",
      "outputs": [
        {
          "name": "",
          "type": "bool"
        }
      ],
      "payable": false,
      "stateMutability": "nonpayable",
      "type": "function"
    },
    {
      "constant": false,
      "inputs": [
        {
          "name": "_beneficiary",
          "type": "address"
        },
        {
          "name": "_amount",
          "type": "uint256"
        }
      ],
      "name": "buyTokensFromCrowdsale",
      "outputs": [
        {
          "name": "",
          "type": "bool"
        }
      ],
      "payable": false,
      "stateMutability": "nonpayable",
      "type": "function"
    },
    {
      "constant": false,
      "inputs": [],
      "name": "burnRemainingTokensFromCrowdsale",
      "outputs": [
        {
          "name": "",
          "type": "bool"
        }
      ],
      "payable": false,
      "stateMutability": "nonpayable",
      "type": "function"
    }
  ],
  "bytecode": "0x60606040526000600360146101000a81548160ff0219169083151502179055506000600760146101000a81548160ff0219169083151502179055506000600760156101000a81548160ff0219169083151502179055506000600760166101000a81548160ff0219169083151502179055506000600b556000600c556000600d5534156200008b57600080fd5b60405160808062003d648339810160405280805190602001909190805190602001909190805190602001909190805190602001909190505033600360006101000a81548173ffffffffffffffffffffffffffffffffffffffff021916908373ffffffffffffffffffffffffffffffffffffffff1602179055506200012e601260ff16600a0a85620002236401000000000262003466179091906401000000009004565b600481905550620151808302600881905550620151808202600981905550620151808102600a81905550600a544201600d819055506004546001819055506004546000803373ffffffffffffffffffffffffffffffffffffffff1673ffffffffffffffffffffffffffffffffffffffff168152602001908152602001600020819055503373ffffffffffffffffffffffffffffffffffffffff16600073ffffffffffffffffffffffffffffffffffffffff167fddf252ad1be2c89b69c2b068fc378daa952ba7f163c4a11628f55a4df523b3ef6004546040518082815260200191505060405180910390a35050505062000262565b60008060008414156200023a57600091506200025b565b82840290508284828115156200024c57fe5b041415156200025757fe5b8091505b5092915050565b613af280620002726000396000f300606060405260043610610230576000357c0100000000000000000000000000000000000000000000000000000000900463ffffffff16806305d2035b1461023557806306275b731461026257806306fdde031461028f578063095ea7b31461031d57806318160ddd1461037757806323b872dd146103a0578063279d96e9146104195780632e32003e14610466578063313ce5671461048f578063378dc3dc146104be578063380bef17146104e75780633ecb2abf1461051057806340c10f191461053957806342966c68146105935780634727dfce146105b65780635874a09a146105df5780635a3b7e421461060c5780635f08cba51461069a578063608814e4146106e75780636618846314610720578063664b0b7a1461077a5780636d4568c3146107cf57806370a08231146107f857806375c174ae146108455780637a77d1441461086e5780637d64bcb4146108c357806382817e0a146108f057806382ab0600146109195780638483adcb146109665780638a7edca61461098f5780638da5cb5b146109e957806392415a3c14610a3e57806395d89b4114610a7757806399e48c6214610b055780639ee648e414610b2e5780639f8078d714610b575780639f8a08e214610b80578063a04a23f614610bd5578063a9059cbb14610c0e578063b4ac66b914610c68578063bd50b3b414610c95578063c82e0f3214610cef578063caf328dc14610d18578063d73dd62314610d45578063dd62ed3e14610d9f578063f2fde38b14610e0b575b600080fd5b341561024057600080fd5b610248610e44565b604051808215151515815260200191505060405180910390f35b341561026d57600080fd5b610275610e57565b604051808215151515815260200191505060405180910390f35b341561029a57600080fd5b6102a2610ed6565b6040518080602001828103825283818151815260200191508051906020019080838360005b838110156102e25780820151818401526020810190506102c7565b50505050905090810190601f16801561030f5780820380516001836020036101000a031916815260200191505b509250505060405180910390f35b341561032857600080fd5b61035d600480803573ffffffffffffffffffffffffffffffffffffffff16906020019091908035906020019091905050610f0f565b604051808215151515815260200191505060405180910390f35b341561038257600080fd5b61038a611001565b6040518082815260200191505060405180910390f35b34156103ab57600080fd5b6103ff600480803573ffffffffffffffffffffffffffffffffffffffff1690602001909190803573ffffffffffffffffffffffffffffffffffffffff1690602001909190803590602001909190505061100b565b604051808215151515815260200191505060405180910390f35b341561042457600080fd5b610450600480803573ffffffffffffffffffffffffffffffffffffffff16906020019091905050611177565b6040518082815260200191505060405180910390f35b341561047157600080fd5b61047961121c565b6040518082815260200191505060405180910390f35b341561049a57600080fd5b6104a2611222565b604051808260ff1660ff16815260200191505060405180910390f35b34156104c957600080fd5b6104d1611227565b6040518082815260200191505060405180910390f35b34156104f257600080fd5b6104fa61122d565b6040518082815260200191505060405180910390f35b341561051b57600080fd5b610523611233565b6040518082815260200191505060405180910390f35b341561054457600080fd5b610579600480803573ffffffffffffffffffffffffffffffffffffffff16906020019091908035906020019091905050611239565b604051808215151515815260200191505060405180910390f35b341561059e57600080fd5b6105b4600480803590602001909190505061141f565b005b34156105c157600080fd5b6105c96115d7565b6040518082815260200191505060405180910390f35b34156105ea57600080fd5b6105f261161e565b604051808215151515815260200191505060405180910390f35b341561061757600080fd5b61061f611631565b6040518080602001828103825283818151815260200191508051906020019080838360005b8381101561065f578082015181840152602081019050610644565b50505050905090810190601f16801561068c5780820380516001836020036101000a031916815260200191505b509250505060405180910390f35b34156106a557600080fd5b6106d1600480803573ffffffffffffffffffffffffffffffffffffffff1690602001909190505061166a565b6040518082815260200191505060405180910390f35b34156106f257600080fd5b61071e600480803573ffffffffffffffffffffffffffffffffffffffff1690602001909190505061170f565b005b341561072b57600080fd5b610760600480803573ffffffffffffffffffffffffffffffffffffffff169060200190919080359060200190919050506119e9565b604051808215151515815260200191505060405180910390f35b341561078557600080fd5b61078d611c7a565b604051808273ffffffffffffffffffffffffffffffffffffffff1673ffffffffffffffffffffffffffffffffffffffff16815260200191505060405180910390f35b34156107da57600080fd5b6107e2611d00565b6040518082815260200191505060405180910390f35b341561080357600080fd5b61082f600480803573ffffffffffffffffffffffffffffffffffffffff16906020019091905050611d47565b6040518082815260200191505060405180910390f35b341561085057600080fd5b610858611d8f565b6040518082815260200191505060405180910390f35b341561087957600080fd5b610881611d94565b604051808273ffffffffffffffffffffffffffffffffffffffff1673ffffffffffffffffffffffffffffffffffffffff16815260200191505060405180910390f35b34156108ce57600080fd5b6108d6611e1a565b604051808215151515815260200191505060405180910390f35b34156108fb57600080fd5b610903611ee2565b6040518082815260200191505060405180910390f35b341561092457600080fd5b610950600480803573ffffffffffffffffffffffffffffffffffffffff16906020019091905050611ee7565b6040518082815260200191505060405180910390f35b341561097157600080fd5b610979611f8c565b6040518082815260200191505060405180910390f35b341561099a57600080fd5b6109cf600480803573ffffffffffffffffffffffffffffffffffffffff16906020019091908035906020019091905050611f92565b604051808215151515815260200191505060405180910390f35b34156109f457600080fd5b6109fc612003565b604051808273ffffffffffffffffffffffffffffffffffffffff1673ffffffffffffffffffffffffffffffffffffffff16815260200191505060405180910390f35b3415610a4957600080fd5b610a75600480803573ffffffffffffffffffffffffffffffffffffffff16906020019091905050612029565b005b3415610a8257600080fd5b610a8a6123b0565b6040518080602001828103825283818151815260200191508051906020019080838360005b83811015610aca578082015181840152602081019050610aaf565b50505050905090810190601f168015610af75780820380516001836020036101000a031916815260200191505b509250505060405180910390f35b3415610b1057600080fd5b610b186123e9565b6040518082815260200191505060405180910390f35b3415610b3957600080fd5b610b416123ef565b6040518082815260200191505060405180910390f35b3415610b6257600080fd5b610b6a6123f5565b6040518082815260200191505060405180910390f35b3415610b8b57600080fd5b610b936123fa565b604051808273ffffffffffffffffffffffffffffffffffffffff1673ffffffffffffffffffffffffffffffffffffffff16815260200191505060405180910390f35b3415610be057600080fd5b610c0c600480803573ffffffffffffffffffffffffffffffffffffffff16906020019091905050612480565b005b3415610c1957600080fd5b610c4e600480803573ffffffffffffffffffffffffffffffffffffffff16906020019091908035906020019091905050612807565b604051808215151515815260200191505060405180910390f35b3415610c7357600080fd5b610c7b612971565b604051808215151515815260200191505060405180910390f35b3415610ca057600080fd5b610cd5600480803573ffffffffffffffffffffffffffffffffffffffff16906020019091908035906020019091905050612984565b604051808215151515815260200191505060405180910390f35b3415610cfa57600080fd5b610d02612ada565b6040518082815260200191505060405180910390f35b3415610d2357600080fd5b610d2b612b21565b604051808215151515815260200191505060405180910390f35b3415610d5057600080fd5b610d85600480803573ffffffffffffffffffffffffffffffffffffffff16906020019091908035906020019091905050612b34565b604051808215151515815260200191505060405180910390f35b3415610daa57600080fd5b610df5600480803573ffffffffffffffffffffffffffffffffffffffff1690602001909190803573ffffffffffffffffffffffffffffffffffffffff16906020019091905050612d30565b6040518082815260200191505060405180910390f35b3415610e1657600080fd5b610e42600480803573ffffffffffffffffffffffffffffffffffffffff16906020019091905050612db7565b005b600360149054906101000a900460ff1681565b6000806000610e6533612f0f565b915060008214158015610e785750600482105b1515610e8357600080fd5b6000803373ffffffffffffffffffffffffffffffffffffffff1673ffffffffffffffffffffffffffffffffffffffff168152602001908152602001600020549050610ecd8161141f565b60019250505090565b6040805190810160405280600d81526020017f4d61657374726f20546f6b656e0000000000000000000000000000000000000081525081565b600081600260003373ffffffffffffffffffffffffffffffffffffffff1673ffffffffffffffffffffffffffffffffffffffff16815260200190815260200160002060008573ffffffffffffffffffffffffffffffffffffffff1673ffffffffffffffffffffffffffffffffffffffff168152602001908152602001600020819055508273ffffffffffffffffffffffffffffffffffffffff163373ffffffffffffffffffffffffffffffffffffffff167f8c5be1e5ebec7d5bd14f71427d1e84f3dd0314c0f7b2291e5b200ac8c7c3b925846040518082815260200191505060405180910390a36001905092915050565b6000600154905090565b600083826000809050600b5442101561106357600e60008473ffffffffffffffffffffffffffffffffffffffff1673ffffffffffffffffffffffffffffffffffffffff16815260200190815260200160002054810190505b600c544210156110b257600f60008473ffffffffffffffffffffffffffffffffffffffff1673ffffffffffffffffffffffffffffffffffffffff16815260200190815260200160002054810190505b600d5442101561110157601060008473ffffffffffffffffffffffffffffffffffffffff1673ffffffffffffffffffffffffffffffffffffffff16815260200190815260200160002054810190505b6000808473ffffffffffffffffffffffffffffffffffffffff1673ffffffffffffffffffffffffffffffffffffffff16815260200190815260200160002054611153828461307590919063ffffffff16565b1115151561116057600080fd5b61116b878787613093565b93505050509392505050565b6000600360009054906101000a900473ffffffffffffffffffffffffffffffffffffffff1673ffffffffffffffffffffffffffffffffffffffff163373ffffffffffffffffffffffffffffffffffffffff161415156111d557600080fd5b600e60008373ffffffffffffffffffffffffffffffffffffffff1673ffffffffffffffffffffffffffffffffffffffff168152602001908152602001600020549050919050565b600d5481565b601281565b60045481565b60085481565b600a5481565b6000600360009054906101000a900473ffffffffffffffffffffffffffffffffffffffff1673ffffffffffffffffffffffffffffffffffffffff163373ffffffffffffffffffffffffffffffffffffffff1614151561129757600080fd5b600360149054906101000a900460ff161515156112b357600080fd5b6112c88260015461307590919063ffffffff16565b60018190555061131f826000808673ffffffffffffffffffffffffffffffffffffffff1673ffffffffffffffffffffffffffffffffffffffff1681526020019081526020016000205461307590919063ffffffff16565b6000808573ffffffffffffffffffffffffffffffffffffffff1673ffffffffffffffffffffffffffffffffffffffff168152602001908152602001600020819055508273ffffffffffffffffffffffffffffffffffffffff167f0f6798a560793a54c3bcfe86a93cde1e73087d944c0ea20544137d4121396885836040518082815260200191505060405180910390a28273ffffffffffffffffffffffffffffffffffffffff16600073ffffffffffffffffffffffffffffffffffffffff167fddf252ad1be2c89b69c2b068fc378daa952ba7f163c4a11628f55a4df523b3ef846040518082815260200191505060405180910390a36001905092915050565b60008060003373ffffffffffffffffffffffffffffffffffffffff1673ffffffffffffffffffffffffffffffffffffffff16815260200190815260200160002054821115151561146e57600080fd5b3390506114c2826000808473ffffffffffffffffffffffffffffffffffffffff1673ffffffffffffffffffffffffffffffffffffffff1681526020019081526020016000205461344d90919063ffffffff16565b6000808373ffffffffffffffffffffffffffffffffffffffff1673ffffffffffffffffffffffffffffffffffffffff168152602001908152602001600020819055506115198260015461344d90919063ffffffff16565b6001819055508073ffffffffffffffffffffffffffffffffffffffff167fcc16f5dbb4873280815c1ee09dbd06736cffcc184412cf7a71a0fdb75d397ca5836040518082815260200191505060405180910390a2600073ffffffffffffffffffffffffffffffffffffffff168173ffffffffffffffffffffffffffffffffffffffff167fddf252ad1be2c89b69c2b068fc378daa952ba7f163c4a11628f55a4df523b3ef846040518082815260200191505060405180910390a35050565b6000600f60003373ffffffffffffffffffffffffffffffffffffffff1673ffffffffffffffffffffffffffffffffffffffff16815260200190815260200160002054905090565b600760159054906101000a900460ff1681565b6040805190810160405280600581526020017f455243323000000000000000000000000000000000000000000000000000000081525081565b6000600360009054906101000a900473ffffffffffffffffffffffffffffffffffffffff1673ffffffffffffffffffffffffffffffffffffffff163373ffffffffffffffffffffffffffffffffffffffff161415156116c857600080fd5b600f60008373ffffffffffffffffffffffffffffffffffffffff1673ffffffffffffffffffffffffffffffffffffffff168152602001908152602001600020549050919050565b6000806000600360009054906101000a900473ffffffffffffffffffffffffffffffffffffffff1673ffffffffffffffffffffffffffffffffffffffff163373ffffffffffffffffffffffffffffffffffffffff1614151561177057600080fd5b600073ffffffffffffffffffffffffffffffffffffffff168473ffffffffffffffffffffffffffffffffffffffff16141515156117ac57600080fd5b600760169054906101000a900460ff161515156117c857600080fd5b83600760006101000a81548173ffffffffffffffffffffffffffffffffffffffff021916908373ffffffffffffffffffffffffffffffffffffffff1602179055508373ffffffffffffffffffffffffffffffffffffffff1663355274ea6040518163ffffffff167c0100000000000000000000000000000000000000000000000000000000028152600401602060405180830381600087803b151561186c57600080fd5b5af1151561187957600080fd5b5050506040518051905092508373ffffffffffffffffffffffffffffffffffffffff16632c4e722e6040518163ffffffff167c0100000000000000000000000000000000000000000000000000000000028152600401602060405180830381600087803b15156118e857600080fd5b5af115156118f557600080fd5b505050604051805190509150611914828461346690919063ffffffff16565b9050611942600760009054906101000a900473ffffffffffffffffffffffffffffffffffffffff1682612807565b508373ffffffffffffffffffffffffffffffffffffffff1663f613a6876040518163ffffffff167c0100000000000000000000000000000000000000000000000000000000028152600401602060405180830381600087803b15156119a657600080fd5b5af115156119b357600080fd5b5050506040518051905015156119c857600080fd5b6001600760166101000a81548160ff02191690831515021790555050505050565b600080600260003373ffffffffffffffffffffffffffffffffffffffff1673ffffffffffffffffffffffffffffffffffffffff16815260200190815260200160002060008573ffffffffffffffffffffffffffffffffffffffff1673ffffffffffffffffffffffffffffffffffffffff16815260200190815260200160002054905080831115611afa576000600260003373ffffffffffffffffffffffffffffffffffffffff1673ffffffffffffffffffffffffffffffffffffffff16815260200190815260200160002060008673ffffffffffffffffffffffffffffffffffffffff1673ffffffffffffffffffffffffffffffffffffffff16815260200190815260200160002081905550611b8e565b611b0d838261344d90919063ffffffff16565b600260003373ffffffffffffffffffffffffffffffffffffffff1673ffffffffffffffffffffffffffffffffffffffff16815260200190815260200160002060008673ffffffffffffffffffffffffffffffffffffffff1673ffffffffffffffffffffffffffffffffffffffff168152602001908152602001600020819055505b8373ffffffffffffffffffffffffffffffffffffffff163373ffffffffffffffffffffffffffffffffffffffff167f8c5be1e5ebec7d5bd14f71427d1e84f3dd0314c0f7b2291e5b200ac8c7c3b925600260003373ffffffffffffffffffffffffffffffffffffffff1673ffffffffffffffffffffffffffffffffffffffff16815260200190815260200160002060008873ffffffffffffffffffffffffffffffffffffffff1673ffffffffffffffffffffffffffffffffffffffff168152602001908152602001600020546040518082815260200191505060405180910390a3600191505092915050565b6000600360009054906101000a900473ffffffffffffffffffffffffffffffffffffffff1673ffffffffffffffffffffffffffffffffffffffff163373ffffffffffffffffffffffffffffffffffffffff16141515611cd857600080fd5b600660009054906101000a900473ffffffffffffffffffffffffffffffffffffffff16905090565b6000600e60003373ffffffffffffffffffffffffffffffffffffffff1673ffffffffffffffffffffffffffffffffffffffff16815260200190815260200160002054905090565b60008060008373ffffffffffffffffffffffffffffffffffffffff1673ffffffffffffffffffffffffffffffffffffffff168152602001908152602001600020549050919050565b600a81565b6000600360009054906101000a900473ffffffffffffffffffffffffffffffffffffffff1673ffffffffffffffffffffffffffffffffffffffff163373ffffffffffffffffffffffffffffffffffffffff16141515611df257600080fd5b600760009054906101000a900473ffffffffffffffffffffffffffffffffffffffff16905090565b6000600360009054906101000a900473ffffffffffffffffffffffffffffffffffffffff1673ffffffffffffffffffffffffffffffffffffffff163373ffffffffffffffffffffffffffffffffffffffff16141515611e7857600080fd5b600360149054906101000a900460ff16151515611e9457600080fd5b6001600360146101000a81548160ff0219169083151502179055507fae5184fba832cb2b1f702aca6117b8d265eaf03ad33eb133f19dde0f5920fa0860405160405180910390a16001905090565b600081565b6000600360009054906101000a900473ffffffffffffffffffffffffffffffffffffffff1673ffffffffffffffffffffffffffffffffffffffff163373ffffffffffffffffffffffffffffffffffffffff16141515611f4557600080fd5b601060008373ffffffffffffffffffffffffffffffffffffffff1673ffffffffffffffffffffffffffffffffffffffff168152602001908152602001600020549050919050565b600b5481565b600080600080611fa133612f0f565b925060008314158015611fb45750600483105b1515611fbf57600080fd5b611fc985846134a1565b9150611fde828661307590919063ffffffff16565b9050611fea8682612807565b50611ff6868385613534565b6001935050505092915050565b600360009054906101000a900473ffffffffffffffffffffffffffffffffffffffff1681565b6000806000600360009054906101000a900473ffffffffffffffffffffffffffffffffffffffff1673ffffffffffffffffffffffffffffffffffffffff163373ffffffffffffffffffffffffffffffffffffffff1614151561208a57600080fd5b600073ffffffffffffffffffffffffffffffffffffffff168473ffffffffffffffffffffffffffffffffffffffff16141515156120c657600080fd5b600760149054906101000a900460ff161515156120e257600080fd5b83600560006101000a81548173ffffffffffffffffffffffffffffffffffffffff021916908373ffffffffffffffffffffffffffffffffffffffff1602179055506008548473ffffffffffffffffffffffffffffffffffffffff16634b6753bc6040518163ffffffff167c0100000000000000000000000000000000000000000000000000000000028152600401602060405180830381600087803b151561218957600080fd5b5af1151561219657600080fd5b5050506040518051905001600b819055508373ffffffffffffffffffffffffffffffffffffffff1663355274ea6040518163ffffffff167c0100000000000000000000000000000000000000000000000000000000028152600401602060405180830381600087803b151561220a57600080fd5b5af1151561221757600080fd5b5050506040518051905092508373ffffffffffffffffffffffffffffffffffffffff16632c4e722e6040518163ffffffff167c0100000000000000000000000000000000000000000000000000000000028152600401602060405180830381600087803b151561228657600080fd5b5af1151561229357600080fd5b5050506040518051905091506122db6064601e016122cd60646122bf868861346690919063ffffffff16565b61388c90919063ffffffff16565b61346690919063ffffffff16565b9050612309600560009054906101000a900473ffffffffffffffffffffffffffffffffffffffff1682612807565b508373ffffffffffffffffffffffffffffffffffffffff1663f613a6876040518163ffffffff167c0100000000000000000000000000000000000000000000000000000000028152600401602060405180830381600087803b151561236d57600080fd5b5af1151561237a57600080fd5b50505060405180519050151561238f57600080fd5b6001600760146101000a81548160ff02191690831515021790555050505050565b6040805190810160405280600381526020017f4d4145000000000000000000000000000000000000000000000000000000000081525081565b60095481565b600c5481565b601e81565b6000600360009054906101000a900473ffffffffffffffffffffffffffffffffffffffff1673ffffffffffffffffffffffffffffffffffffffff163373ffffffffffffffffffffffffffffffffffffffff1614151561245857600080fd5b600560009054906101000a900473ffffffffffffffffffffffffffffffffffffffff16905090565b6000806000600360009054906101000a900473ffffffffffffffffffffffffffffffffffffffff1673ffffffffffffffffffffffffffffffffffffffff163373ffffffffffffffffffffffffffffffffffffffff161415156124e157600080fd5b600073ffffffffffffffffffffffffffffffffffffffff168473ffffffffffffffffffffffffffffffffffffffff161415151561251d57600080fd5b600760159054906101000a900460ff1615151561253957600080fd5b83600660006101000a81548173ffffffffffffffffffffffffffffffffffffffff021916908373ffffffffffffffffffffffffffffffffffffffff1602179055506009548473ffffffffffffffffffffffffffffffffffffffff16634b6753bc6040518163ffffffff167c0100000000000000000000000000000000000000000000000000000000028152600401602060405180830381600087803b15156125e057600080fd5b5af115156125ed57600080fd5b5050506040518051905001600c819055508373ffffffffffffffffffffffffffffffffffffffff1663355274ea6040518163ffffffff167c0100000000000000000000000000000000000000000000000000000000028152600401602060405180830381600087803b151561266157600080fd5b5af1151561266e57600080fd5b5050506040518051905092508373ffffffffffffffffffffffffffffffffffffffff16632c4e722e6040518163ffffffff167c0100000000000000000000000000000000000000000000000000000000028152600401602060405180830381600087803b15156126dd57600080fd5b5af115156126ea57600080fd5b5050506040518051905091506127326064600a016127246064612716868861346690919063ffffffff16565b61388c90919063ffffffff16565b61346690919063ffffffff16565b9050612760600660009054906101000a900473ffffffffffffffffffffffffffffffffffffffff1682612807565b508373ffffffffffffffffffffffffffffffffffffffff1663f613a6876040518163ffffffff167c0100000000000000000000000000000000000000000000000000000000028152600401602060405180830381600087803b15156127c457600080fd5b5af115156127d157600080fd5b5050506040518051905015156127e657600080fd5b6001600760156101000a81548160ff02191690831515021790555050505050565b600033826000809050600b5442101561285f57600e60008473ffffffffffffffffffffffffffffffffffffffff1673ffffffffffffffffffffffffffffffffffffffff16815260200190815260200160002054810190505b600c544210156128ae57600f60008473ffffffffffffffffffffffffffffffffffffffff1673ffffffffffffffffffffffffffffffffffffffff16815260200190815260200160002054810190505b600d544210156128fd57601060008473ffffffffffffffffffffffffffffffffffffffff1673ffffffffffffffffffffffffffffffffffffffff16815260200190815260200160002054810190505b6000808473ffffffffffffffffffffffffffffffffffffffff1673ffffffffffffffffffffffffffffffffffffffff1681526020019081526020016000205461294f828461307590919063ffffffff16565b1115151561295c57600080fd5b61296686866138a7565b935050505092915050565b600760149054906101000a900460ff1681565b6000600360009054906101000a900473ffffffffffffffffffffffffffffffffffffffff1673ffffffffffffffffffffffffffffffffffffffff163373ffffffffffffffffffffffffffffffffffffffff161415156129e257600080fd5b6129ec8383612807565b50612a3f82601060008673ffffffffffffffffffffffffffffffffffffffff1673ffffffffffffffffffffffffffffffffffffffff1681526020019081526020016000205461307590919063ffffffff16565b601060008573ffffffffffffffffffffffffffffffffffffffff1673ffffffffffffffffffffffffffffffffffffffff168152602001908152602001600020819055508273ffffffffffffffffffffffffffffffffffffffff167f625fed9875dada8643f2418b838ae0bc78d9a148a18eee4ee1979ff0f3f5d427836040518082815260200191505060405180910390a26001905092915050565b6000601060003373ffffffffffffffffffffffffffffffffffffffff1673ffffffffffffffffffffffffffffffffffffffff16815260200190815260200160002054905090565b600760169054906101000a900460ff1681565b6000612bc582600260003373ffffffffffffffffffffffffffffffffffffffff1673ffffffffffffffffffffffffffffffffffffffff16815260200190815260200160002060008673ffffffffffffffffffffffffffffffffffffffff1673ffffffffffffffffffffffffffffffffffffffff1681526020019081526020016000205461307590919063ffffffff16565b600260003373ffffffffffffffffffffffffffffffffffffffff1673ffffffffffffffffffffffffffffffffffffffff16815260200190815260200160002060008573ffffffffffffffffffffffffffffffffffffffff1673ffffffffffffffffffffffffffffffffffffffff168152602001908152602001600020819055508273ffffffffffffffffffffffffffffffffffffffff163373ffffffffffffffffffffffffffffffffffffffff167f8c5be1e5ebec7d5bd14f71427d1e84f3dd0314c0f7b2291e5b200ac8c7c3b925600260003373ffffffffffffffffffffffffffffffffffffffff1673ffffffffffffffffffffffffffffffffffffffff16815260200190815260200160002060008773ffffffffffffffffffffffffffffffffffffffff1673ffffffffffffffffffffffffffffffffffffffff168152602001908152602001600020546040518082815260200191505060405180910390a36001905092915050565b6000600260008473ffffffffffffffffffffffffffffffffffffffff1673ffffffffffffffffffffffffffffffffffffffff16815260200190815260200160002060008373ffffffffffffffffffffffffffffffffffffffff1673ffffffffffffffffffffffffffffffffffffffff16815260200190815260200160002054905092915050565b600360009054906101000a900473ffffffffffffffffffffffffffffffffffffffff1673ffffffffffffffffffffffffffffffffffffffff163373ffffffffffffffffffffffffffffffffffffffff16141515612e1357600080fd5b600073ffffffffffffffffffffffffffffffffffffffff168173ffffffffffffffffffffffffffffffffffffffff1614151515612e4f57600080fd5b8073ffffffffffffffffffffffffffffffffffffffff16600360009054906101000a900473ffffffffffffffffffffffffffffffffffffffff1673ffffffffffffffffffffffffffffffffffffffff167f8be0079c531659141344cd1fd0a4f28419497f9722a3daafe3b4186f6b6457e060405160405180910390a380600360006101000a81548173ffffffffffffffffffffffffffffffffffffffff021916908373ffffffffffffffffffffffffffffffffffffffff16021790555050565b60008073ffffffffffffffffffffffffffffffffffffffff168273ffffffffffffffffffffffffffffffffffffffff161415612f4e5760009050613070565b600560009054906101000a900473ffffffffffffffffffffffffffffffffffffffff1673ffffffffffffffffffffffffffffffffffffffff168273ffffffffffffffffffffffffffffffffffffffff161415612fad5760019050613070565b600660009054906101000a900473ffffffffffffffffffffffffffffffffffffffff1673ffffffffffffffffffffffffffffffffffffffff168273ffffffffffffffffffffffffffffffffffffffff16141561300c5760029050613070565b600760009054906101000a900473ffffffffffffffffffffffffffffffffffffffff1673ffffffffffffffffffffffffffffffffffffffff168273ffffffffffffffffffffffffffffffffffffffff16141561306b5760039050613070565b600090505b919050565b600080828401905083811015151561308957fe5b8091505092915050565b60008073ffffffffffffffffffffffffffffffffffffffff168373ffffffffffffffffffffffffffffffffffffffff16141515156130d057600080fd5b6000808573ffffffffffffffffffffffffffffffffffffffff1673ffffffffffffffffffffffffffffffffffffffff16815260200190815260200160002054821115151561311d57600080fd5b600260008573ffffffffffffffffffffffffffffffffffffffff1673ffffffffffffffffffffffffffffffffffffffff16815260200190815260200160002060003373ffffffffffffffffffffffffffffffffffffffff1673ffffffffffffffffffffffffffffffffffffffff1681526020019081526020016000205482111515156131a857600080fd5b6131f9826000808773ffffffffffffffffffffffffffffffffffffffff1673ffffffffffffffffffffffffffffffffffffffff1681526020019081526020016000205461344d90919063ffffffff16565b6000808673ffffffffffffffffffffffffffffffffffffffff1673ffffffffffffffffffffffffffffffffffffffff1681526020019081526020016000208190555061328c826000808673ffffffffffffffffffffffffffffffffffffffff1673ffffffffffffffffffffffffffffffffffffffff1681526020019081526020016000205461307590919063ffffffff16565b6000808573ffffffffffffffffffffffffffffffffffffffff1673ffffffffffffffffffffffffffffffffffffffff1681526020019081526020016000208190555061335d82600260008773ffffffffffffffffffffffffffffffffffffffff1673ffffffffffffffffffffffffffffffffffffffff16815260200190815260200160002060003373ffffffffffffffffffffffffffffffffffffffff1673ffffffffffffffffffffffffffffffffffffffff1681526020019081526020016000205461344d90919063ffffffff16565b600260008673ffffffffffffffffffffffffffffffffffffffff1673ffffffffffffffffffffffffffffffffffffffff16815260200190815260200160002060003373ffffffffffffffffffffffffffffffffffffffff1673ffffffffffffffffffffffffffffffffffffffff168152602001908152602001600020819055508273ffffffffffffffffffffffffffffffffffffffff168473ffffffffffffffffffffffffffffffffffffffff167fddf252ad1be2c89b69c2b068fc378daa952ba7f163c4a11628f55a4df523b3ef846040518082815260200191505060405180910390a3600190509392505050565b600082821115151561345b57fe5b818303905092915050565b600080600084141561347b576000915061349a565b828402905082848281151561348c57fe5b0414151561349657fe5b8091505b5092915050565b600060018214156134da576134d3601e6134c560648661388c90919063ffffffff16565b61346690919063ffffffff16565b905061352e565b60028214156135115761350a600a6134fc60648661388c90919063ffffffff16565b61346690919063ffffffff16565b905061352e565b6003821415613523576000905061352e565b6000151561352d57fe5b5b92915050565b82826000809050600b5442101561358a57600e60008473ffffffffffffffffffffffffffffffffffffffff1673ffffffffffffffffffffffffffffffffffffffff16815260200190815260200160002054810190505b600c544210156135d957600f60008473ffffffffffffffffffffffffffffffffffffffff1673ffffffffffffffffffffffffffffffffffffffff16815260200190815260200160002054810190505b600d5442101561362857601060008473ffffffffffffffffffffffffffffffffffffffff1673ffffffffffffffffffffffffffffffffffffffff16815260200190815260200160002054810190505b6000808473ffffffffffffffffffffffffffffffffffffffff1673ffffffffffffffffffffffffffffffffffffffff1681526020019081526020016000205461367a828461307590919063ffffffff16565b1115151561368757600080fd5b6001841415613778576136e285600e60008973ffffffffffffffffffffffffffffffffffffffff1673ffffffffffffffffffffffffffffffffffffffff1681526020019081526020016000205461307590919063ffffffff16565b600e60008873ffffffffffffffffffffffffffffffffffffffff1673ffffffffffffffffffffffffffffffffffffffff168152602001908152602001600020819055508573ffffffffffffffffffffffffffffffffffffffff167f625fed9875dada8643f2418b838ae0bc78d9a148a18eee4ee1979ff0f3f5d427866040518082815260200191505060405180910390a2613883565b6002841415613869576137d385600f60008973ffffffffffffffffffffffffffffffffffffffff1673ffffffffffffffffffffffffffffffffffffffff1681526020019081526020016000205461307590919063ffffffff16565b600f60008873ffffffffffffffffffffffffffffffffffffffff1673ffffffffffffffffffffffffffffffffffffffff168152602001908152602001600020819055508573ffffffffffffffffffffffffffffffffffffffff167f625fed9875dada8643f2418b838ae0bc78d9a148a18eee4ee1979ff0f3f5d427866040518082815260200191505060405180910390a2613882565b600384141561387757613884565b6000151561388157fe5b5b5b5b505050505050565b600080828481151561389a57fe5b0490508091505092915050565b60008073ffffffffffffffffffffffffffffffffffffffff168373ffffffffffffffffffffffffffffffffffffffff16141515156138e457600080fd5b6000803373ffffffffffffffffffffffffffffffffffffffff1673ffffffffffffffffffffffffffffffffffffffff16815260200190815260200160002054821115151561393157600080fd5b613982826000803373ffffffffffffffffffffffffffffffffffffffff1673ffffffffffffffffffffffffffffffffffffffff1681526020019081526020016000205461344d90919063ffffffff16565b6000803373ffffffffffffffffffffffffffffffffffffffff1673ffffffffffffffffffffffffffffffffffffffff16815260200190815260200160002081905550613a15826000808673ffffffffffffffffffffffffffffffffffffffff1673ffffffffffffffffffffffffffffffffffffffff1681526020019081526020016000205461307590919063ffffffff16565b6000808573ffffffffffffffffffffffffffffffffffffffff1673ffffffffffffffffffffffffffffffffffffffff168152602001908152602001600020819055508273ffffffffffffffffffffffffffffffffffffffff163373ffffffffffffffffffffffffffffffffffffffff167fddf252ad1be2c89b69c2b068fc378daa952ba7f163c4a11628f55a4df523b3ef846040518082815260200191505060405180910390a360019050929150505600a165627a7a7230582085baf4260d14db42cd98024081bb12b628f2e0e1023b59ddaa04454d7fdbffd70029",
  "source": "pragma solidity ^0.4.21;\n\nimport \"zeppelin-solidity/contracts/token/ERC20/BurnableToken.sol\";\nimport \"zeppelin-solidity/contracts/token/ERC20/MintableToken.sol\";\n\nimport \"./MaestroCrowdsale.sol\";\n\n\n/**\n * The main contract for Maestro token\n */\ncontract MaestroToken is BurnableToken, MintableToken {\n\n    string public constant standard = \"ERC20\";\n    string public constant name     = \"Maestro Token\";\n    string public constant symbol   = \"MAE\";\n    uint8 public constant decimals  = 18;\n\n    uint256 public initialSupply;\n    // {uint256 totalSupply_} is also a global variable\n\n    /* Bonus rates */\n    uint public constant BONUS_S1 = 30;\n    uint public constant BONUS_S2 = 10;\n    uint public constant BONUS_S3 = 0;\n\n    /* Crowdsale addresses and flags */\n    address internal crowdsaleS1Address;\n    address internal crowdsaleS2Address;\n    address internal crowdsaleS3Address;\n    bool public crowdsaleS1Flag = false;\n    bool public crowdsaleS2Flag = false;\n    bool public crowdsaleS3Flag = false;\n\n    /* Lockup durations and release dates */\n    uint public lockupDurationS1;   // Unit is days\n    uint public lockupDurationS2;   // Unit is days\n    uint public lockupDurationTeam; // Unit is days\n    uint public releaseDateS1 = 0;\n    uint public releaseDateS2 = 0;\n    uint public releaseDateTeam = 0;\n\n    /* Mapping to keep track of lockup of each address */\n    mapping(address => uint256) internal lockupS1;\n    mapping(address => uint256) internal lockupS2;\n    mapping(address => uint256) internal lockupTeam;\n\n    /* Events */\n    event Lock(address indexed _tokenHolder, uint256 _value);\n\n    /**\n     * Disallows transferring locked tokens\n     */\n    modifier checkLockup(address _from, uint256 _value) {\n        uint256 totalLockup = 0;\n\n        if (now < releaseDateS1) {\n            totalLockup += lockupS1[_from];\n        } \n        if (now < releaseDateS2) {\n            totalLockup += lockupS2[_from];\n        } \n        if (now < releaseDateTeam) {\n            totalLockup += lockupTeam[_from];\n        }\n\n        require(_value.add(totalLockup) <= balances[_from]);\n        _;\n    }\n\n    /**\n     * Constructor\n     * Note that {_initialSupplyWithoutDecimals} is amount before multiplying by {10 ** decimals}\n     * For example, if {_initialSupplyWithoutDecimals == 999} then {initialSupply == 999 * (10 ** decimals)}\n     * This is so that we make sure the initial supply is divisible by {10 ** decimals}\n     * Unit of lockup duration variables is days\n     */\n    function MaestroToken(\n        uint256 _initialSupplyWithoutDecimals,\n        uint _lockupDurationS1,\n        uint _lockupDurationS2,\n        uint _lockupDurationTeam\n    ) \n        public \n    {\n        initialSupply = _initialSupplyWithoutDecimals.mul(10 ** uint256(decimals));\n        lockupDurationS1 = (_lockupDurationS1 * 1 days);\n        lockupDurationS2 = (_lockupDurationS2 * 1 days);\n        lockupDurationTeam = (_lockupDurationTeam * 1 days);\n\n        releaseDateTeam = now + lockupDurationTeam;\n\n        // In BasicToken.sol\n        // Current total supply of tokens, can be increased by mint() or decreased by burn()\n        totalSupply_ = initialSupply;\n\n        balances[msg.sender] = initialSupply;  // Give the creator all initial tokens\n        emit Transfer(address(0), msg.sender, initialSupply);\n    }\n\n    /*************************/\n    /*                       */\n    /*  Overriden Functions  */\n    /*                       */\n    /*************************/\n\n    /**\n     * Override BasicToken.transfer()\n     */\n    function transfer(address _to, uint256 _value) public checkLockup(msg.sender, _value) returns (bool) {\n        return super.transfer(_to, _value);\n    }\n\n    /**\n     * Override StandardToken.transferFrom()\n     */\n    function transferFrom(address _from, address _to, uint256 _value) public checkLockup(_from, _value) returns (bool) {\n        return super.transferFrom(_from, _to, _value);\n    }\n\n    /*************************/\n    /*                       */\n    /*    Other Functions    */\n    /*                       */\n    /*************************/\n\n    /**\n     * Return S1 lockup of sender\n     */\n    function getLockupS1() public view returns (uint256) {\n        return lockupS1[msg.sender];\n    }\n\n    /**\n     * Return S1 lockup of {_owner} - can only be called by owner\n     */\n    function getLockupS1OnlyOwner(address _owner) public view onlyOwner returns (uint256) {\n        return lockupS1[_owner];\n    }\n\n    /**\n     * Return S2 lockup of sender\n     */\n    function getLockupS2() public view returns (uint256) {\n        return lockupS2[msg.sender];\n    }\n\n    /**\n     * Return S2 lockup of {_owner} - can only be called by owner\n     */\n    function getLockupS2OnlyOwner(address _owner) public view onlyOwner returns (uint256) {\n        return lockupS2[_owner];\n    }\n\n    /**\n     * Return lockup of team member\n     */\n    function getLockupTeam() public view returns (uint256) {\n        return lockupTeam[msg.sender];\n    }\n\n    /**\n     * Return S2 lockup of {_owner} - can only be called by owner\n     */\n    function getLockupTeamOnlyOwner(address _owner) public view onlyOwner returns (uint256) {\n        return lockupTeam[_owner];\n    }\n\n    /**\n     * Return address of CrowdsaleS1 - can only be called by owner\n     */\n    function getCrowdsaleS1Address() public view onlyOwner returns (address) {\n        return crowdsaleS1Address;\n    }\n\n    /**\n     * Return address of CrowdsaleS2 - can only be called by owner\n     */\n    function getCrowdsaleS2Address() public view onlyOwner returns (address) {\n        return crowdsaleS2Address;\n    }\n\n    /**\n     * Return address of CrowdsaleS3 - can only be called by owner\n     */\n    function getCrowdsaleS3Address() public view onlyOwner returns (address) {\n        return crowdsaleS3Address;\n    }\n\n    // TODO: What happens when we input wrong address and need to revert?\n    /**\n     * Set address of CrowdsaleS1\n     */\n    function setCrowdsaleS1(address _address) public onlyOwner {\n        require(_address != address(0));\n        require(!crowdsaleS1Flag);\n\n        crowdsaleS1Address = _address;\n        releaseDateS1 = MaestroCrowdsale(_address).closingTime() + lockupDurationS1;\n\n        uint256 cap = MaestroCrowdsale(_address).cap();\n        uint256 rate = MaestroCrowdsale(_address).rate();\n        uint256 tokenAmount = cap.mul(rate).div(100).mul(BONUS_S1 + 100);\n        transfer(crowdsaleS1Address, tokenAmount);\n\n        require(MaestroCrowdsale(_address).returnTrue());\n        crowdsaleS1Flag = true;\n    }\n\n    /**\n     * Set address of CrowdsaleS2\n     */\n    function setCrowdsaleS2(address _address) public onlyOwner {\n        require(_address != address(0));\n        require(!crowdsaleS2Flag);\n\n        crowdsaleS2Address = _address;\n        releaseDateS2 = MaestroCrowdsale(_address).closingTime() + lockupDurationS2;\n\n        uint256 cap = MaestroCrowdsale(_address).cap();\n        uint256 rate = MaestroCrowdsale(_address).rate();\n        uint256 tokenAmount = cap.mul(rate).div(100).mul(BONUS_S2 + 100);\n        transfer(crowdsaleS2Address, tokenAmount);\n\n        require(MaestroCrowdsale(_address).returnTrue());\n        crowdsaleS2Flag = true;\n    }\n\n    /**\n     * Set address of CrowdsaleS3\n     */\n    function setCrowdsaleS3(address _address) public onlyOwner {\n        require(_address != address(0));\n        require(!crowdsaleS3Flag);\n\n        crowdsaleS3Address = _address;\n\n        uint256 cap = MaestroCrowdsale(_address).cap();\n        uint256 rate = MaestroCrowdsale(_address).rate();\n        uint256 tokenAmount = cap.mul(rate);\n        transfer(crowdsaleS3Address, tokenAmount);\n\n        require(MaestroCrowdsale(_address).returnTrue());\n        crowdsaleS3Flag = true;\n    }\n\n    /**\n     * Get crowdsale number, return 0 otherwise\n     */\n    function getCrowdsaleNumber(address _sender) internal view returns (uint) {\n        if (_sender == address(0))\n            return 0;\n\n        if (_sender == crowdsaleS1Address)\n            return 1;\n\n        if (_sender == crowdsaleS2Address)\n            return 2;\n\n        if (_sender == crowdsaleS3Address)\n            return 3;\n\n        return 0;\n    }\n\n    /**\n     * Calculates bonus according to season\n     * Crowdsale number must be 1, 2, or 3\n     */\n    function calculateBonus(uint256 _amount, uint _crowdsaleNumber) internal pure returns (uint256) {\n        if (_crowdsaleNumber == 1)\n            return _amount.div(100).mul(BONUS_S1);\n\n        if (_crowdsaleNumber == 2)\n            return _amount.div(100).mul(BONUS_S2);\n\n        if (_crowdsaleNumber == 3)\n            return 0;\n\n        assert(false);\n    }\n\n    /**\n     * Increase amount of locked tokens of {_tokenHolder} by {_value}\n     * Crowdsale number must be 1, 2, or 3\n     * Total lockup cannot be more than balance\n     */\n    function lockTokens(address _tokenHolder, uint256 _value, uint _crowdsaleNumber) internal checkLockup(_tokenHolder, _value) {\n        if (_crowdsaleNumber == 1) {\n            lockupS1[_tokenHolder] = lockupS1[_tokenHolder].add(_value);\n            emit Lock(_tokenHolder, _value);\n        } else if (_crowdsaleNumber == 2) {\n            lockupS2[_tokenHolder] = lockupS2[_tokenHolder].add(_value);\n            emit Lock(_tokenHolder, _value);\n        } else if (_crowdsaleNumber == 3) {\n            return;\n        } else {\n            assert(false);\n        }\n    }\n\n    /** \n     * Transfers and locks up an amount\n     * Used to lockup team reserve by owner\n     */\n    function transferAndLock(address _beneficiary, uint256 _amount) public onlyOwner returns (bool) {\n        transfer(_beneficiary, _amount);\n\n        // From Solhint: Possible reentrancy vulnerabilities. Avoid state changes after transfer\n        lockupTeam[_beneficiary] = lockupTeam[_beneficiary].add(_amount);\n        emit Lock(_beneficiary, _amount);\n\n        return true;\n    }\n\n    /**\n     * Transfers an amount with bonus and locks up the bonus\n     * Called only from the CrowdsaleS1 contract\n     */\n    function buyTokensFromCrowdsale(address _beneficiary, uint256 _amount) public returns (bool) {\n        uint crowdsaleNumber = getCrowdsaleNumber(msg.sender);\n        require(crowdsaleNumber != 0 && crowdsaleNumber < 4);\n\n        uint256 bonus = calculateBonus(_amount, crowdsaleNumber);\n        uint256 amountWithBonus = _amount.add(bonus);\n\n        transfer(_beneficiary, amountWithBonus);\n        lockTokens(_beneficiary, bonus, crowdsaleNumber);\n\n        return true;\n    }\n\n    /**\n     * Burns remaining balance that crowdsale has\n     * Called when crowdsale ends\n     */\n    function burnRemainingTokensFromCrowdsale() public returns (bool) {\n        uint crowdsaleNumber = getCrowdsaleNumber(msg.sender);\n        require(crowdsaleNumber != 0 && crowdsaleNumber < 4);\n\n        uint256 balance = balances[msg.sender];\n        burn(balance);\n\n        return true;\n    }\n}\n",
  "sourcePath": "/Users/chan/Desktop/dev/maestro-token-dev/contracts/MaestroToken.sol",
  "compiler": {
    "name": "solc",
    "version": "0.4.21+commit.dfe3193c.Emscripten.clang"
  },
  "schemaVersion": "2.0.0",
  "updatedAt": "2018-05-14T06:30:16.297Z"
}