{
  "contractName": "MaestroCrowdsale",
  "abi": [
    {
      "constant": true,
      "inputs": [],
      "name": "rate",
      "outputs": [
        {
          "name": "",
          "type": "uint256"
        }
      ],
      "payable": false,
      "stateMutability": "view",
      "type": "function"
    },
    {
      "constant": true,
      "inputs": [],
      "name": "cap",
      "outputs": [
        {
          "name": "",
          "type": "uint256"
        }
      ],
      "payable": false,
      "stateMutability": "view",
      "type": "function"
    },
    {
      "constant": true,
      "inputs": [],
      "name": "weiRaised",
      "outputs": [
        {
          "name": "",
          "type": "uint256"
        }
      ],
      "payable": false,
      "stateMutability": "view",
      "type": "function"
    },
    {
      "constant": true,
      "inputs": [],
      "name": "closingTime",
      "outputs": [
        {
          "name": "",
          "type": "uint256"
        }
      ],
      "payable": false,
      "stateMutability": "view",
      "type": "function"
    },
    {
      "constant": true,
      "inputs": [],
      "name": "wallet",
      "outputs": [
        {
          "name": "",
          "type": "address"
        }
      ],
      "payable": false,
      "stateMutability": "view",
      "type": "function"
    },
    {
      "constant": true,
      "inputs": [],
      "name": "isFinalized",
      "outputs": [
        {
          "name": "",
          "type": "bool"
        }
      ],
      "payable": false,
      "stateMutability": "view",
      "type": "function"
    },
    {
      "constant": true,
      "inputs": [],
      "name": "owner",
      "outputs": [
        {
          "name": "",
          "type": "address"
        }
      ],
      "payable": false,
      "stateMutability": "view",
      "type": "function"
    },
    {
      "constant": true,
      "inputs": [],
      "name": "openingTime",
      "outputs": [
        {
          "name": "",
          "type": "uint256"
        }
      ],
      "payable": false,
      "stateMutability": "view",
      "type": "function"
    },
    {
      "constant": true,
      "inputs": [],
      "name": "token",
      "outputs": [
        {
          "name": "",
          "type": "address"
        }
      ],
      "payable": false,
      "stateMutability": "view",
      "type": "function"
    },
    {
      "inputs": [
        {
          "name": "_openingTime",
          "type": "uint256"
        },
        {
          "name": "_closingTime",
          "type": "uint256"
        },
        {
          "name": "_rate",
          "type": "uint256"
        },
        {
          "name": "_wallet",
          "type": "address"
        },
        {
          "name": "_cap",
          "type": "uint256"
        },
        {
          "name": "_token",
          "type": "address"
        }
      ],
      "payable": false,
      "stateMutability": "nonpayable",
      "type": "constructor"
    },
    {
      "payable": true,
      "stateMutability": "payable",
      "type": "fallback"
    },
    {
      "anonymous": false,
      "inputs": [
        {
          "indexed": true,
          "name": "previousOwner",
          "type": "address"
        },
        {
          "indexed": true,
          "name": "newOwner",
          "type": "address"
        }
      ],
      "name": "OwnershipTransferred",
      "type": "event"
    },
    {
      "anonymous": false,
      "inputs": [
        {
          "indexed": true,
          "name": "purchaser",
          "type": "address"
        },
        {
          "indexed": true,
          "name": "beneficiary",
          "type": "address"
        },
        {
          "indexed": false,
          "name": "value",
          "type": "uint256"
        },
        {
          "indexed": false,
          "name": "amount",
          "type": "uint256"
        }
      ],
      "name": "TokenPurchase",
      "type": "event"
    },
    {
      "anonymous": false,
      "inputs": [],
      "name": "Finalized",
      "type": "event"
    },
    {
      "constant": false,
      "inputs": [
        {
          "name": "newOwner",
          "type": "address"
        }
      ],
      "name": "transferOwnership",
      "outputs": [],
      "payable": false,
      "stateMutability": "nonpayable",
      "type": "function"
    },
    {
      "constant": false,
      "inputs": [
        {
          "name": "_beneficiary",
          "type": "address"
        }
      ],
      "name": "buyTokens",
      "outputs": [],
      "payable": true,
      "stateMutability": "payable",
      "type": "function"
    },
    {
      "constant": true,
      "inputs": [],
      "name": "hasClosed",
      "outputs": [
        {
          "name": "",
          "type": "bool"
        }
      ],
      "payable": false,
      "stateMutability": "view",
      "type": "function"
    },
    {
      "constant": false,
      "inputs": [],
      "name": "finalize",
      "outputs": [],
      "payable": false,
      "stateMutability": "nonpayable",
      "type": "function"
    },
    {
      "constant": true,
      "inputs": [],
      "name": "capReached",
      "outputs": [
        {
          "name": "",
          "type": "bool"
        }
      ],
      "payable": false,
      "stateMutability": "view",
      "type": "function"
    },
    {
      "constant": false,
      "inputs": [],
      "name": "returnTrue",
      "outputs": [
        {
          "name": "",
          "type": "bool"
        }
      ],
      "payable": false,
      "stateMutability": "nonpayable",
      "type": "function"
    }
  ],
  "bytecode": "0x60606040526000600760006101000a81548160ff021916908315150217905550341561002a57600080fd5b60405160c080610cda83398101604052808051906020019091908051906020019091908051906020019091908051906020019091908051906020019091908051906020019091905050336000806101000a81548173ffffffffffffffffffffffffffffffffffffffff021916908373ffffffffffffffffffffffffffffffffffffffff1602179055506000841115156100c257600080fd5b600073ffffffffffffffffffffffffffffffffffffffff168373ffffffffffffffffffffffffffffffffffffffff16141515156100fe57600080fd5b600073ffffffffffffffffffffffffffffffffffffffff168173ffffffffffffffffffffffffffffffffffffffff161415151561013a57600080fd5b8360038190555082600260006101000a81548173ffffffffffffffffffffffffffffffffffffffff021916908373ffffffffffffffffffffffffffffffffffffffff16021790555080600160006101000a81548173ffffffffffffffffffffffffffffffffffffffff021916908373ffffffffffffffffffffffffffffffffffffffff1602179055504286101515156101d257600080fd5b8585101515156101e157600080fd5b85600581905550846006819055506000821115156101fe57600080fd5b81600881905550505050505050610ac08061021a6000396000f3006060604052600436106100db576000357c0100000000000000000000000000000000000000000000000000000000900463ffffffff1680631515bc2b146100e65780632c4e722e14610113578063355274ea1461013c5780634042b66f146101655780634b6753bc1461018e5780634bb278f3146101b75780634f935945146101cc578063521eb273146101f95780638d4e40831461024e5780638da5cb5b1461027b578063b7a8807c146102d0578063ec8ac4d8146102f9578063f2fde38b14610327578063f613a68714610360578063fc0c546a1461038d575b6100e4336103e2565b005b34156100f157600080fd5b6100f961049c565b604051808215151515815260200191505060405180910390f35b341561011e57600080fd5b6101266104a8565b6040518082815260200191505060405180910390f35b341561014757600080fd5b61014f6104ae565b6040518082815260200191505060405180910390f35b341561017057600080fd5b6101786104b4565b6040518082815260200191505060405180910390f35b341561019957600080fd5b6101a16104ba565b6040518082815260200191505060405180910390f35b34156101c257600080fd5b6101ca6104c0565b005b34156101d757600080fd5b6101df61059b565b604051808215151515815260200191505060405180910390f35b341561020457600080fd5b61020c6105aa565b604051808273ffffffffffffffffffffffffffffffffffffffff1673ffffffffffffffffffffffffffffffffffffffff16815260200191505060405180910390f35b341561025957600080fd5b6102616105d0565b604051808215151515815260200191505060405180910390f35b341561028657600080fd5b61028e6105e3565b604051808273ffffffffffffffffffffffffffffffffffffffff1673ffffffffffffffffffffffffffffffffffffffff16815260200191505060405180910390f35b34156102db57600080fd5b6102e3610608565b6040518082815260200191505060405180910390f35b610325600480803573ffffffffffffffffffffffffffffffffffffffff169060200190919050506103e2565b005b341561033257600080fd5b61035e600480803573ffffffffffffffffffffffffffffffffffffffff1690602001909190505061060e565b005b341561036b57600080fd5b610373610763565b604051808215151515815260200191505060405180910390f35b341561039857600080fd5b6103a061076c565b604051808273ffffffffffffffffffffffffffffffffffffffff1673ffffffffffffffffffffffffffffffffffffffff16815260200191505060405180910390f35b6000803491506103f28383610792565b6103fb82610826565b90506104128260045461084490919063ffffffff16565b6004819055506104228382610862565b8273ffffffffffffffffffffffffffffffffffffffff163373ffffffffffffffffffffffffffffffffffffffff167f623b3804fa71d67900d064613da8f94b9617215ee90799290593e1745087ad188484604051808381526020018281526020019250505060405180910390a361049761094c565b505050565b60006006544211905090565b60035481565b60085481565b60045481565b60065481565b6000809054906101000a900473ffffffffffffffffffffffffffffffffffffffff1673ffffffffffffffffffffffffffffffffffffffff163373ffffffffffffffffffffffffffffffffffffffff1614151561051b57600080fd5b600760009054906101000a900460ff1615151561053757600080fd5b61053f61049c565b151561054a57600080fd5b6105526109b0565b7f6823b073d48d6e3a7d385eeb601452d680e74bb46afe3255a7d778f3a9b1768160405160405180910390a16001600760006101000a81548160ff021916908315150217905550565b60006008546004541015905090565b600260009054906101000a900473ffffffffffffffffffffffffffffffffffffffff1681565b600760009054906101000a900460ff1681565b6000809054906101000a900473ffffffffffffffffffffffffffffffffffffffff1681565b60055481565b6000809054906101000a900473ffffffffffffffffffffffffffffffffffffffff1673ffffffffffffffffffffffffffffffffffffffff163373ffffffffffffffffffffffffffffffffffffffff1614151561066957600080fd5b600073ffffffffffffffffffffffffffffffffffffffff168173ffffffffffffffffffffffffffffffffffffffff16141515156106a557600080fd5b8073ffffffffffffffffffffffffffffffffffffffff166000809054906101000a900473ffffffffffffffffffffffffffffffffffffffff1673ffffffffffffffffffffffffffffffffffffffff167f8be0079c531659141344cd1fd0a4f28419497f9722a3daafe3b4186f6b6457e060405160405180910390a3806000806101000a81548173ffffffffffffffffffffffffffffffffffffffff021916908373ffffffffffffffffffffffffffffffffffffffff16021790555050565b60006001905090565b600160009054906101000a900473ffffffffffffffffffffffffffffffffffffffff1681565b60055442101580156107a657506006544211155b15156107b157600080fd5b600073ffffffffffffffffffffffffffffffffffffffff168273ffffffffffffffffffffffffffffffffffffffff16141515156107ed57600080fd5b600081141515156107fd57600080fd5b6008546108158260045461084490919063ffffffff16565b1115151561082257600080fd5b5050565b600061083d60035483610a5990919063ffffffff16565b9050919050565b600080828401905083811015151561085857fe5b8091505092915050565b600160009054906101000a900473ffffffffffffffffffffffffffffffffffffffff1673ffffffffffffffffffffffffffffffffffffffff16638a7edca683836040518363ffffffff167c0100000000000000000000000000000000000000000000000000000000028152600401808373ffffffffffffffffffffffffffffffffffffffff1673ffffffffffffffffffffffffffffffffffffffff16815260200182815260200192505050602060405180830381600087803b151561092657600080fd5b5af1151561093357600080fd5b50505060405180519050151561094857600080fd5b5050565b600260009054906101000a900473ffffffffffffffffffffffffffffffffffffffff1673ffffffffffffffffffffffffffffffffffffffff166108fc349081150290604051600060405180830381858888f1935050505015156109ae57600080fd5b565b600160009054906101000a900473ffffffffffffffffffffffffffffffffffffffff1673ffffffffffffffffffffffffffffffffffffffff166306275b736040518163ffffffff167c0100000000000000000000000000000000000000000000000000000000028152600401602060405180830381600087803b1515610a3557600080fd5b5af11515610a4257600080fd5b505050604051805190501515610a5757600080fd5b565b6000806000841415610a6e5760009150610a8d565b8284029050828482811515610a7f57fe5b04141515610a8957fe5b8091505b50929150505600a165627a7a7230582098660b36759a7ef984255baccbf5980a108be18757ee77525249bf8f9340a12a0029",
  "source": "pragma solidity ^0.4.21;\n\nimport \"./MaestroToken.sol\";\n\n\n/**\n * Maestro Crowdsale\n */\ncontract MaestroCrowdsale {\n    using SafeMath for uint256;\n\n    /*************************/\n    /*                       */\n    /*        Ownable        */\n    /*                       */\n    /*************************/\n\n    address public owner;\n\n    event OwnershipTransferred(address indexed previousOwner, address indexed newOwner);\n\n    modifier onlyOwner() {\n        require(msg.sender == owner);\n        _;\n    }\n\n    function transferOwnership(address newOwner) public onlyOwner {\n        require(newOwner != address(0));\n        emit OwnershipTransferred(owner, newOwner);\n        owner = newOwner;\n    }\n\n    /*************************/\n    /*                       */\n    /*       Crowdsale       */\n    /*                       */\n    /*************************/\n\n    address public token;\n    address public wallet;\n    uint256 public rate;\n    uint256 public weiRaised;\n\n    event TokenPurchase(address indexed purchaser, address indexed beneficiary, uint256 value, uint256 amount);\n\n    function () external payable {\n        buyTokens(msg.sender);\n    }\n\n    function buyTokens(address _beneficiary) public payable {\n\n        uint256 weiAmount = msg.value;\n        _preValidatePurchase(_beneficiary, weiAmount);\n\n        // calculate token amount to be created\n        uint256 tokens = _getTokenAmount(weiAmount);\n\n        // update state\n        weiRaised = weiRaised.add(weiAmount);\n\n        _processPurchase(_beneficiary, tokens);\n        emit TokenPurchase(\n            msg.sender,\n            _beneficiary,\n            weiAmount,\n            tokens\n        );\n\n        _forwardFunds();\n    }\n\n    function _getTokenAmount(uint256 _weiAmount) internal view returns (uint256) {\n        return _weiAmount.mul(rate);\n    }\n\n    function _forwardFunds() internal {\n        wallet.transfer(msg.value);\n    }\n\n    /*************************/\n    /*                       */\n    /*     TimedCrowdsale    */\n    /*                       */\n    /*************************/\n\n    uint256 public openingTime;\n    uint256 public closingTime;\n\n    modifier onlyWhileOpen {\n        require(block.timestamp >= openingTime && block.timestamp <= closingTime);\n        _;\n    }\n\n    function hasClosed() public view returns (bool) {\n        return block.timestamp > closingTime;\n    }\n\n    /**************************/\n    /*                        */\n    /*  FinalizableCrowdsale  */\n    /*                        */\n    /**************************/\n\n    bool public isFinalized = false;\n\n    event Finalized();\n\n    function finalize() public onlyOwner {\n        require(!isFinalized);\n        require(hasClosed());\n\n        finalization();\n        emit Finalized();\n\n        isFinalized = true;\n    }\n\n    /*************************/\n    /*                       */\n    /*    CappedCrowdsale    */\n    /*                       */\n    /*************************/\n\n    uint256 public cap;\n\n    function capReached() public view returns (bool) {\n        return weiRaised >= cap;\n    }\n\n    /**\n     * Constructor\n     * Variables from inherited contracts\n     * {rate, wallet, token} from Crowdsale.sol\n     * {cap} from CappedCrowdsale.sol\n     * {openingTime, closingTime} from TimedCrowdsale.sol\n     */\n    function MaestroCrowdsale(\n        uint256 _openingTime,           // Opening time in timestamp\n        uint256 _closingTime,           // Closing time in timestamp\n        uint256 _rate,                  // How many token units a buyer gets per wei\n        address _wallet,                // Address where funds are collected\n        uint256 _cap,                   // Max amount of wei to be contributed\n        address _token                    // The token being sold\n    )\n        public\n    {\n        // /* Ownable */\n        owner = msg.sender;\n\n        // /* Crowdsale */\n        require(_rate > 0);\n        require(_wallet != address(0));\n        require(_token != address(0));\n\n        rate = _rate;\n        wallet = _wallet;\n        token = _token;\n\n        /* TimedCrowdsale */\n        require(_openingTime >= now);\n        require(_closingTime >= _openingTime);\n\n        openingTime = _openingTime;\n        closingTime = _closingTime;\n\n        /* CappedCrowdsale */\n        require(_cap > 0);\n\n        cap = _cap;\n    }\n\n    /**\n     * Override parent contracts to combine implementation of CappedCrowdsale and TimedCrowdsale\n     */\n    function _preValidatePurchase(address _beneficiary, uint256 _weiAmount) internal onlyWhileOpen {\n        require(_beneficiary != address(0));\n        require(_weiAmount != 0);\n        require(weiRaised.add(_weiAmount) <= cap);\n    }\n\n    /**\n     * Override parent contracts\n     * Unlike parent contracts, it does NOT call internal {_deliverTokens} function\n     * {_tokenAmount} does not include bonus\n     */\n    function _processPurchase(address _beneficiary, uint256 _tokenAmount) internal {\n        require(MaestroToken(token).buyTokensFromCrowdsale(_beneficiary, _tokenAmount));\n    }\n\n    /**\n     * Override from FinalizableCrowdsale to include burning of remaining tokens\n     */\n    function finalization() internal {\n        require(MaestroToken(token).burnRemainingTokensFromCrowdsale());\n    }\n\n    /**\n     * Called by token contract for validation\n     */\n    function returnTrue() public returns (bool) {\n        return true;\n    }\n}\n",
  "sourcePath": "/Users/chan/Desktop/dev/maestro-token-dev/contracts/MaestroCrowdsale.sol",
  "compiler": {
    "name": "solc",
    "version": "0.4.21+commit.dfe3193c.Emscripten.clang"
  },
  "schemaVersion": "2.0.0",
  "updatedAt": "2018-05-14T06:35:01.795Z"
}