{
  "contractName": "MaestroToken",
  "abi": [
    {
      "constant": true,
      "inputs": [],
      "name": "mintingFinished",
      "outputs": [
        {
          "name": "",
          "type": "bool"
        }
      ],
      "payable": false,
      "stateMutability": "view",
      "type": "function"
    },
    {
      "constant": true,
      "inputs": [],
      "name": "name",
      "outputs": [
        {
          "name": "",
          "type": "string"
        }
      ],
      "payable": false,
      "stateMutability": "view",
      "type": "function"
    },
    {
      "constant": false,
      "inputs": [
        {
          "name": "_spender",
          "type": "address"
        },
        {
          "name": "_value",
          "type": "uint256"
        }
      ],
      "name": "approve",
      "outputs": [
        {
          "name": "",
          "type": "bool"
        }
      ],
      "payable": false,
      "stateMutability": "nonpayable",
      "type": "function"
    },
    {
      "constant": true,
      "inputs": [],
      "name": "totalTeamSupply",
      "outputs": [
        {
          "name": "",
          "type": "uint256"
        }
      ],
      "payable": false,
      "stateMutability": "view",
      "type": "function"
    },
    {
      "constant": true,
      "inputs": [],
      "name": "totalSupply",
      "outputs": [
        {
          "name": "",
          "type": "uint256"
        }
      ],
      "payable": false,
      "stateMutability": "view",
      "type": "function"
    },
    {
      "constant": true,
      "inputs": [],
      "name": "releaseDateTeam",
      "outputs": [
        {
          "name": "",
          "type": "uint256"
        }
      ],
      "payable": false,
      "stateMutability": "view",
      "type": "function"
    },
    {
      "constant": true,
      "inputs": [],
      "name": "decimals",
      "outputs": [
        {
          "name": "",
          "type": "uint8"
        }
      ],
      "payable": false,
      "stateMutability": "view",
      "type": "function"
    },
    {
      "constant": true,
      "inputs": [],
      "name": "crowdsaleS3Address",
      "outputs": [
        {
          "name": "",
          "type": "address"
        }
      ],
      "payable": false,
      "stateMutability": "view",
      "type": "function"
    },
    {
      "constant": true,
      "inputs": [],
      "name": "initialSupply",
      "outputs": [
        {
          "name": "",
          "type": "uint256"
        }
      ],
      "payable": false,
      "stateMutability": "view",
      "type": "function"
    },
    {
      "constant": true,
      "inputs": [],
      "name": "lockupDurationS1",
      "outputs": [
        {
          "name": "",
          "type": "uint256"
        }
      ],
      "payable": false,
      "stateMutability": "view",
      "type": "function"
    },
    {
      "constant": true,
      "inputs": [],
      "name": "lockupDurationTeam",
      "outputs": [
        {
          "name": "",
          "type": "uint256"
        }
      ],
      "payable": false,
      "stateMutability": "view",
      "type": "function"
    },
    {
      "constant": false,
      "inputs": [
        {
          "name": "_to",
          "type": "address"
        },
        {
          "name": "_amount",
          "type": "uint256"
        }
      ],
      "name": "mint",
      "outputs": [
        {
          "name": "",
          "type": "bool"
        }
      ],
      "payable": false,
      "stateMutability": "nonpayable",
      "type": "function"
    },
    {
      "constant": false,
      "inputs": [
        {
          "name": "_value",
          "type": "uint256"
        }
      ],
      "name": "burn",
      "outputs": [],
      "payable": false,
      "stateMutability": "nonpayable",
      "type": "function"
    },
    {
      "constant": true,
      "inputs": [],
      "name": "TEAM_PERCENT",
      "outputs": [
        {
          "name": "",
          "type": "uint256"
        }
      ],
      "payable": false,
      "stateMutability": "view",
      "type": "function"
    },
    {
      "constant": true,
      "inputs": [],
      "name": "crowdsaleS2Flag",
      "outputs": [
        {
          "name": "",
          "type": "bool"
        }
      ],
      "payable": false,
      "stateMutability": "view",
      "type": "function"
    },
    {
      "constant": true,
      "inputs": [],
      "name": "standard",
      "outputs": [
        {
          "name": "",
          "type": "string"
        }
      ],
      "payable": false,
      "stateMutability": "view",
      "type": "function"
    },
    {
      "constant": false,
      "inputs": [
        {
          "name": "_spender",
          "type": "address"
        },
        {
          "name": "_subtractedValue",
          "type": "uint256"
        }
      ],
      "name": "decreaseApproval",
      "outputs": [
        {
          "name": "",
          "type": "bool"
        }
      ],
      "payable": false,
      "stateMutability": "nonpayable",
      "type": "function"
    },
    {
      "constant": true,
      "inputs": [],
      "name": "cumulativeTeamSupply",
      "outputs": [
        {
          "name": "",
          "type": "uint256"
        }
      ],
      "payable": false,
      "stateMutability": "view",
      "type": "function"
    },
    {
      "constant": true,
      "inputs": [
        {
          "name": "_owner",
          "type": "address"
        }
      ],
      "name": "balanceOf",
      "outputs": [
        {
          "name": "balance",
          "type": "uint256"
        }
      ],
      "payable": false,
      "stateMutability": "view",
      "type": "function"
    },
    {
      "constant": true,
      "inputs": [],
      "name": "BONUS_S2",
      "outputs": [
        {
          "name": "",
          "type": "uint256"
        }
      ],
      "payable": false,
      "stateMutability": "view",
      "type": "function"
    },
    {
      "constant": false,
      "inputs": [],
      "name": "finishMinting",
      "outputs": [
        {
          "name": "",
          "type": "bool"
        }
      ],
      "payable": false,
      "stateMutability": "nonpayable",
      "type": "function"
    },
    {
      "constant": true,
      "inputs": [],
      "name": "BONUS_S3",
      "outputs": [
        {
          "name": "",
          "type": "uint256"
        }
      ],
      "payable": false,
      "stateMutability": "view",
      "type": "function"
    },
    {
      "constant": true,
      "inputs": [],
      "name": "releaseDateS1",
      "outputs": [
        {
          "name": "",
          "type": "uint256"
        }
      ],
      "payable": false,
      "stateMutability": "view",
      "type": "function"
    },
    {
      "constant": true,
      "inputs": [],
      "name": "owner",
      "outputs": [
        {
          "name": "",
          "type": "address"
        }
      ],
      "payable": false,
      "stateMutability": "view",
      "type": "function"
    },
    {
      "constant": true,
      "inputs": [],
      "name": "symbol",
      "outputs": [
        {
          "name": "",
          "type": "string"
        }
      ],
      "payable": false,
      "stateMutability": "view",
      "type": "function"
    },
    {
      "constant": true,
      "inputs": [],
      "name": "lockupDurationS2",
      "outputs": [
        {
          "name": "",
          "type": "uint256"
        }
      ],
      "payable": false,
      "stateMutability": "view",
      "type": "function"
    },
    {
      "constant": true,
      "inputs": [],
      "name": "releaseDateS2",
      "outputs": [
        {
          "name": "",
          "type": "uint256"
        }
      ],
      "payable": false,
      "stateMutability": "view",
      "type": "function"
    },
    {
      "constant": true,
      "inputs": [],
      "name": "BONUS_S1",
      "outputs": [
        {
          "name": "",
          "type": "uint256"
        }
      ],
      "payable": false,
      "stateMutability": "view",
      "type": "function"
    },
    {
      "constant": true,
      "inputs": [],
      "name": "crowdsaleS1Address",
      "outputs": [
        {
          "name": "",
          "type": "address"
        }
      ],
      "payable": false,
      "stateMutability": "view",
      "type": "function"
    },
    {
      "constant": true,
      "inputs": [],
      "name": "crowdsaleS1Flag",
      "outputs": [
        {
          "name": "",
          "type": "bool"
        }
      ],
      "payable": false,
      "stateMutability": "view",
      "type": "function"
    },
    {
      "constant": true,
      "inputs": [],
      "name": "crowdsaleS3Flag",
      "outputs": [
        {
          "name": "",
          "type": "bool"
        }
      ],
      "payable": false,
      "stateMutability": "view",
      "type": "function"
    },
    {
      "constant": false,
      "inputs": [
        {
          "name": "_spender",
          "type": "address"
        },
        {
          "name": "_addedValue",
          "type": "uint256"
        }
      ],
      "name": "increaseApproval",
      "outputs": [
        {
          "name": "",
          "type": "bool"
        }
      ],
      "payable": false,
      "stateMutability": "nonpayable",
      "type": "function"
    },
    {
      "constant": true,
      "inputs": [],
      "name": "crowdsaleS2Address",
      "outputs": [
        {
          "name": "",
          "type": "address"
        }
      ],
      "payable": false,
      "stateMutability": "view",
      "type": "function"
    },
    {
      "constant": true,
      "inputs": [
        {
          "name": "_owner",
          "type": "address"
        },
        {
          "name": "_spender",
          "type": "address"
        }
      ],
      "name": "allowance",
      "outputs": [
        {
          "name": "",
          "type": "uint256"
        }
      ],
      "payable": false,
      "stateMutability": "view",
      "type": "function"
    },
    {
      "constant": false,
      "inputs": [
        {
          "name": "newOwner",
          "type": "address"
        }
      ],
      "name": "transferOwnership",
      "outputs": [],
      "payable": false,
      "stateMutability": "nonpayable",
      "type": "function"
    },
    {
      "inputs": [
        {
          "name": "_initialSupplyWithoutDecimals",
          "type": "uint256"
        },
        {
          "name": "_lockupDurationS1",
          "type": "uint256"
        },
        {
          "name": "_lockupDurationS2",
          "type": "uint256"
        },
        {
          "name": "_lockupDurationTeam",
          "type": "uint256"
        }
      ],
      "payable": false,
      "stateMutability": "nonpayable",
      "type": "constructor"
    },
    {
      "anonymous": false,
      "inputs": [
        {
          "indexed": true,
          "name": "_tokenHolder",
          "type": "address"
        },
        {
          "indexed": false,
          "name": "_value",
          "type": "uint256"
        }
      ],
      "name": "Lock",
      "type": "event"
    },
    {
      "anonymous": false,
      "inputs": [
        {
          "indexed": true,
          "name": "to",
          "type": "address"
        },
        {
          "indexed": false,
          "name": "amount",
          "type": "uint256"
        }
      ],
      "name": "Mint",
      "type": "event"
    },
    {
      "anonymous": false,
      "inputs": [],
      "name": "MintFinished",
      "type": "event"
    },
    {
      "anonymous": false,
      "inputs": [
        {
          "indexed": true,
          "name": "previousOwner",
          "type": "address"
        },
        {
          "indexed": true,
          "name": "newOwner",
          "type": "address"
        }
      ],
      "name": "OwnershipTransferred",
      "type": "event"
    },
    {
      "anonymous": false,
      "inputs": [
        {
          "indexed": true,
          "name": "burner",
          "type": "address"
        },
        {
          "indexed": false,
          "name": "value",
          "type": "uint256"
        }
      ],
      "name": "Burn",
      "type": "event"
    },
    {
      "anonymous": false,
      "inputs": [
        {
          "indexed": true,
          "name": "owner",
          "type": "address"
        },
        {
          "indexed": true,
          "name": "spender",
          "type": "address"
        },
        {
          "indexed": false,
          "name": "value",
          "type": "uint256"
        }
      ],
      "name": "Approval",
      "type": "event"
    },
    {
      "anonymous": false,
      "inputs": [
        {
          "indexed": true,
          "name": "from",
          "type": "address"
        },
        {
          "indexed": true,
          "name": "to",
          "type": "address"
        },
        {
          "indexed": false,
          "name": "value",
          "type": "uint256"
        }
      ],
      "name": "Transfer",
      "type": "event"
    },
    {
      "constant": false,
      "inputs": [
        {
          "name": "_to",
          "type": "address"
        },
        {
          "name": "_value",
          "type": "uint256"
        }
      ],
      "name": "transfer",
      "outputs": [
        {
          "name": "",
          "type": "bool"
        }
      ],
      "payable": false,
      "stateMutability": "nonpayable",
      "type": "function"
    },
    {
      "constant": false,
      "inputs": [
        {
          "name": "_from",
          "type": "address"
        },
        {
          "name": "_to",
          "type": "address"
        },
        {
          "name": "_value",
          "type": "uint256"
        }
      ],
      "name": "transferFrom",
      "outputs": [
        {
          "name": "",
          "type": "bool"
        }
      ],
      "payable": false,
      "stateMutability": "nonpayable",
      "type": "function"
    },
    {
      "constant": true,
      "inputs": [
        {
          "name": "_owner",
          "type": "address"
        }
      ],
      "name": "getLockupS1",
      "outputs": [
        {
          "name": "",
          "type": "uint256"
        }
      ],
      "payable": false,
      "stateMutability": "view",
      "type": "function"
    },
    {
      "constant": true,
      "inputs": [
        {
          "name": "_owner",
          "type": "address"
        }
      ],
      "name": "getLockupS2",
      "outputs": [
        {
          "name": "",
          "type": "uint256"
        }
      ],
      "payable": false,
      "stateMutability": "view",
      "type": "function"
    },
    {
      "constant": true,
      "inputs": [
        {
          "name": "_owner",
          "type": "address"
        }
      ],
      "name": "getLockupTeam",
      "outputs": [
        {
          "name": "",
          "type": "uint256"
        }
      ],
      "payable": false,
      "stateMutability": "view",
      "type": "function"
    },
    {
      "constant": false,
      "inputs": [
        {
          "name": "_address",
          "type": "address"
        }
      ],
      "name": "setCrowdsaleS1",
      "outputs": [],
      "payable": false,
      "stateMutability": "nonpayable",
      "type": "function"
    },
    {
      "constant": false,
      "inputs": [
        {
          "name": "_address",
          "type": "address"
        }
      ],
      "name": "setCrowdsaleS2",
      "outputs": [],
      "payable": false,
      "stateMutability": "nonpayable",
      "type": "function"
    },
    {
      "constant": false,
      "inputs": [
        {
          "name": "_address",
          "type": "address"
        }
      ],
      "name": "setCrowdsaleS3",
      "outputs": [],
      "payable": false,
      "stateMutability": "nonpayable",
      "type": "function"
    },
    {
      "constant": false,
      "inputs": [
        {
          "name": "_beneficiary",
          "type": "address"
        },
        {
          "name": "_amount",
          "type": "uint256"
        }
      ],
      "name": "transferToTeam",
      "outputs": [
        {
          "name": "",
          "type": "bool"
        }
      ],
      "payable": false,
      "stateMutability": "nonpayable",
      "type": "function"
    },
    {
      "constant": false,
      "inputs": [
        {
          "name": "_beneficiary",
          "type": "address"
        },
        {
          "name": "_amount",
          "type": "uint256"
        }
      ],
      "name": "buyTokensFromCrowdsale",
      "outputs": [
        {
          "name": "",
          "type": "bool"
        }
      ],
      "payable": false,
      "stateMutability": "nonpayable",
      "type": "function"
    },
    {
      "constant": false,
      "inputs": [],
      "name": "burnRemainingTokensFromCrowdsale",
      "outputs": [
        {
          "name": "",
          "type": "bool"
        }
      ],
      "payable": false,
      "stateMutability": "nonpayable",
      "type": "function"
    }
  ],
  "bytecode": "0x60606040526000600360146101000a81548160ff02191690831515021790555060006006556000600960146101000a81548160ff0219169083151502179055506000600960156101000a81548160ff0219169083151502179055506000600960166101000a81548160ff0219169083151502179055506000600d556000600e556000600f5534156200009057600080fd5b60405160808062003bac8339810160405280805190602001909190805190602001909190805190602001909190805190602001909190505033600360006101000a81548173ffffffffffffffffffffffffffffffffffffffff021916908373ffffffffffffffffffffffffffffffffffffffff16021790555062000133601260ff16600a0a8562000277640100000000026200320e179091906401000000009004565b600481905550620001826016620001656064600454620002b66401000000000262003664179091906401000000009004565b62000277640100000000026200320e179091906401000000009004565b600581905550620151808302600a81905550620151808202600b81905550620151808102600c81905550600c544201600f819055506004546001819055506004546000803373ffffffffffffffffffffffffffffffffffffffff1673ffffffffffffffffffffffffffffffffffffffff168152602001908152602001600020819055503373ffffffffffffffffffffffffffffffffffffffff16600073ffffffffffffffffffffffffffffffffffffffff167fddf252ad1be2c89b69c2b068fc378daa952ba7f163c4a11628f55a4df523b3ef6004546040518082815260200191505060405180910390a350505050620002d2565b60008060008414156200028e5760009150620002af565b8284029050828482811515620002a057fe5b04141515620002ab57fe5b8091505b5092915050565b6000808284811515620002c557fe5b0490508091505092915050565b6138ca80620002e26000396000f300606060405260043610610230576000357c0100000000000000000000000000000000000000000000000000000000900463ffffffff16806305d2035b1461023557806306275b731461026257806306fdde031461028f578063095ea7b31461031d5780630e485f0214610377578063170594c6146103c457806318160ddd146103ed57806323b872dd146104165780632e32003e1461048f5780632fefe13e146104b8578063313ce56714610505578063329ca20414610534578063378dc3dc14610589578063380bef17146105b25780633ecb2abf146105db57806340c10f191461060457806342966c681461065e5780634c186197146106815780635874a09a146106aa5780635a3b7e42146106d7578063608814e414610765578063661884631461079e5780636850b953146107f857806370a082311461082157806375c174ae1461086e5780637bb1a312146108975780637d64bcb4146108f157806382817e0a1461091e5780638483adcb146109475780638a7edca6146109705780638da5cb5b146109ca57806392415a3c14610a1f57806395d89b4114610a5857806399e48c6214610ae65780639ee648e414610b0f5780639f8078d714610b38578063a04a23f614610b61578063a9059cbb14610b9a578063b1987e4814610bf4578063b4ac66b914610c49578063caf328dc14610c76578063d73dd62314610ca3578063dcbb9c4314610cfd578063dd62ed3e14610d52578063eb743be814610dbe578063f2fde38b14610e0b575b600080fd5b341561024057600080fd5b610248610e44565b604051808215151515815260200191505060405180910390f35b341561026d57600080fd5b610275610e57565b604051808215151515815260200191505060405180910390f35b341561029a57600080fd5b6102a2610ed6565b6040518080602001828103825283818151815260200191508051906020019080838360005b838110156102e25780820151818401526020810190506102c7565b50505050905090810190601f16801561030f5780820380516001836020036101000a031916815260200191505b509250505060405180910390f35b341561032857600080fd5b61035d600480803573ffffffffffffffffffffffffffffffffffffffff16906020019091908035906020019091905050610f0f565b604051808215151515815260200191505060405180910390f35b341561038257600080fd5b6103ae600480803573ffffffffffffffffffffffffffffffffffffffff16906020019091905050611001565b6040518082815260200191505060405180910390f35b34156103cf57600080fd5b6103d761104a565b6040518082815260200191505060405180910390f35b34156103f857600080fd5b610400611050565b6040518082815260200191505060405180910390f35b341561042157600080fd5b610475600480803573ffffffffffffffffffffffffffffffffffffffff1690602001909190803573ffffffffffffffffffffffffffffffffffffffff1690602001909190803590602001909190505061105a565b604051808215151515815260200191505060405180910390f35b341561049a57600080fd5b6104a26111f6565b6040518082815260200191505060405180910390f35b34156104c357600080fd5b6104ef600480803573ffffffffffffffffffffffffffffffffffffffff169060200190919050506111fc565b6040518082815260200191505060405180910390f35b341561051057600080fd5b610518611245565b604051808260ff1660ff16815260200191505060405180910390f35b341561053f57600080fd5b61054761124a565b604051808273ffffffffffffffffffffffffffffffffffffffff1673ffffffffffffffffffffffffffffffffffffffff16815260200191505060405180910390f35b341561059457600080fd5b61059c611270565b6040518082815260200191505060405180910390f35b34156105bd57600080fd5b6105c5611276565b6040518082815260200191505060405180910390f35b34156105e657600080fd5b6105ee61127c565b6040518082815260200191505060405180910390f35b341561060f57600080fd5b610644600480803573ffffffffffffffffffffffffffffffffffffffff16906020019091908035906020019091905050611282565b604051808215151515815260200191505060405180910390f35b341561066957600080fd5b61067f6004808035906020019091905050611468565b005b341561068c57600080fd5b610694611620565b6040518082815260200191505060405180910390f35b34156106b557600080fd5b6106bd611625565b604051808215151515815260200191505060405180910390f35b34156106e257600080fd5b6106ea611638565b6040518080602001828103825283818151815260200191508051906020019080838360005b8381101561072a57808201518184015260208101905061070f565b50505050905090810190601f1680156107575780820380516001836020036101000a031916815260200191505b509250505060405180910390f35b341561077057600080fd5b61079c600480803573ffffffffffffffffffffffffffffffffffffffff16906020019091905050611671565b005b34156107a957600080fd5b6107de600480803573ffffffffffffffffffffffffffffffffffffffff1690602001909190803590602001909190505061194b565b604051808215151515815260200191505060405180910390f35b341561080357600080fd5b61080b611bdc565b6040518082815260200191505060405180910390f35b341561082c57600080fd5b610858600480803573ffffffffffffffffffffffffffffffffffffffff16906020019091905050611be2565b6040518082815260200191505060405180910390f35b341561087957600080fd5b610881611c2a565b6040518082815260200191505060405180910390f35b34156108a257600080fd5b6108d7600480803573ffffffffffffffffffffffffffffffffffffffff16906020019091908035906020019091905050611c2f565b604051808215151515815260200191505060405180910390f35b34156108fc57600080fd5b610904611dc5565b604051808215151515815260200191505060405180910390f35b341561092957600080fd5b610931611e8d565b6040518082815260200191505060405180910390f35b341561095257600080fd5b61095a611e92565b6040518082815260200191505060405180910390f35b341561097b57600080fd5b6109b0600480803573ffffffffffffffffffffffffffffffffffffffff16906020019091908035906020019091905050611e98565b604051808215151515815260200191505060405180910390f35b34156109d557600080fd5b6109dd611f09565b604051808273ffffffffffffffffffffffffffffffffffffffff1673ffffffffffffffffffffffffffffffffffffffff16815260200191505060405180910390f35b3415610a2a57600080fd5b610a56600480803573ffffffffffffffffffffffffffffffffffffffff16906020019091905050611f2f565b005b3415610a6357600080fd5b610a6b6122b6565b6040518080602001828103825283818151815260200191508051906020019080838360005b83811015610aab578082015181840152602081019050610a90565b50505050905090810190601f168015610ad85780820380516001836020036101000a031916815260200191505b509250505060405180910390f35b3415610af157600080fd5b610af96122ef565b6040518082815260200191505060405180910390f35b3415610b1a57600080fd5b610b226122f5565b6040518082815260200191505060405180910390f35b3415610b4357600080fd5b610b4b6122fb565b6040518082815260200191505060405180910390f35b3415610b6c57600080fd5b610b98600480803573ffffffffffffffffffffffffffffffffffffffff16906020019091905050612300565b005b3415610ba557600080fd5b610bda600480803573ffffffffffffffffffffffffffffffffffffffff16906020019091908035906020019091905050612687565b604051808215151515815260200191505060405180910390f35b3415610bff57600080fd5b610c07612821565b604051808273ffffffffffffffffffffffffffffffffffffffff1673ffffffffffffffffffffffffffffffffffffffff16815260200191505060405180910390f35b3415610c5457600080fd5b610c5c612847565b604051808215151515815260200191505060405180910390f35b3415610c8157600080fd5b610c8961285a565b604051808215151515815260200191505060405180910390f35b3415610cae57600080fd5b610ce3600480803573ffffffffffffffffffffffffffffffffffffffff1690602001909190803590602001909190505061286d565b604051808215151515815260200191505060405180910390f35b3415610d0857600080fd5b610d10612a69565b604051808273ffffffffffffffffffffffffffffffffffffffff1673ffffffffffffffffffffffffffffffffffffffff16815260200191505060405180910390f35b3415610d5d57600080fd5b610da8600480803573ffffffffffffffffffffffffffffffffffffffff1690602001909190803573ffffffffffffffffffffffffffffffffffffffff16906020019091905050612a8f565b6040518082815260200191505060405180910390f35b3415610dc957600080fd5b610df5600480803573ffffffffffffffffffffffffffffffffffffffff16906020019091905050612b16565b6040518082815260200191505060405180910390f35b3415610e1657600080fd5b610e42600480803573ffffffffffffffffffffffffffffffffffffffff16906020019091905050612b5f565b005b600360149054906101000a900460ff1681565b6000806000610e6533612cb7565b915060008214158015610e785750600482105b1515610e8357600080fd5b6000803373ffffffffffffffffffffffffffffffffffffffff1673ffffffffffffffffffffffffffffffffffffffff168152602001908152602001600020549050610ecd81611468565b60019250505090565b6040805190810160405280600d81526020017f4d61657374726f20546f6b656e0000000000000000000000000000000000000081525081565b600081600260003373ffffffffffffffffffffffffffffffffffffffff1673ffffffffffffffffffffffffffffffffffffffff16815260200190815260200160002060008573ffffffffffffffffffffffffffffffffffffffff1673ffffffffffffffffffffffffffffffffffffffff168152602001908152602001600020819055508273ffffffffffffffffffffffffffffffffffffffff163373ffffffffffffffffffffffffffffffffffffffff167f8c5be1e5ebec7d5bd14f71427d1e84f3dd0314c0f7b2291e5b200ac8c7c3b925846040518082815260200191505060405180910390a36001905092915050565b6000601060008373ffffffffffffffffffffffffffffffffffffffff1673ffffffffffffffffffffffffffffffffffffffff168152602001908152602001600020549050919050565b60055481565b6000600154905090565b600083826000809050600d544210156110c2576110bf601060008573ffffffffffffffffffffffffffffffffffffffff1673ffffffffffffffffffffffffffffffffffffffff1681526020019081526020016000205482612e1d90919063ffffffff16565b90505b600e544210156111215761111e601160008573ffffffffffffffffffffffffffffffffffffffff1673ffffffffffffffffffffffffffffffffffffffff1681526020019081526020016000205482612e1d90919063ffffffff16565b90505b600f544210156111805761117d601260008573ffffffffffffffffffffffffffffffffffffffff1673ffffffffffffffffffffffffffffffffffffffff1681526020019081526020016000205482612e1d90919063ffffffff16565b90505b6000808473ffffffffffffffffffffffffffffffffffffffff1673ffffffffffffffffffffffffffffffffffffffff168152602001908152602001600020546111d28284612e1d90919063ffffffff16565b111515156111df57600080fd5b6111ea878787612e3b565b93505050509392505050565b600f5481565b6000601260008373ffffffffffffffffffffffffffffffffffffffff1673ffffffffffffffffffffffffffffffffffffffff168152602001908152602001600020549050919050565b601281565b600960009054906101000a900473ffffffffffffffffffffffffffffffffffffffff1681565b60045481565b600a5481565b600c5481565b6000600360009054906101000a900473ffffffffffffffffffffffffffffffffffffffff1673ffffffffffffffffffffffffffffffffffffffff163373ffffffffffffffffffffffffffffffffffffffff161415156112e057600080fd5b600360149054906101000a900460ff161515156112fc57600080fd5b61131182600154612e1d90919063ffffffff16565b600181905550611368826000808673ffffffffffffffffffffffffffffffffffffffff1673ffffffffffffffffffffffffffffffffffffffff16815260200190815260200160002054612e1d90919063ffffffff16565b6000808573ffffffffffffffffffffffffffffffffffffffff1673ffffffffffffffffffffffffffffffffffffffff168152602001908152602001600020819055508273ffffffffffffffffffffffffffffffffffffffff167f0f6798a560793a54c3bcfe86a93cde1e73087d944c0ea20544137d4121396885836040518082815260200191505060405180910390a28273ffffffffffffffffffffffffffffffffffffffff16600073ffffffffffffffffffffffffffffffffffffffff167fddf252ad1be2c89b69c2b068fc378daa952ba7f163c4a11628f55a4df523b3ef846040518082815260200191505060405180910390a36001905092915050565b60008060003373ffffffffffffffffffffffffffffffffffffffff1673ffffffffffffffffffffffffffffffffffffffff1681526020019081526020016000205482111515156114b757600080fd5b33905061150b826000808473ffffffffffffffffffffffffffffffffffffffff1673ffffffffffffffffffffffffffffffffffffffff168152602001908152602001600020546131f590919063ffffffff16565b6000808373ffffffffffffffffffffffffffffffffffffffff1673ffffffffffffffffffffffffffffffffffffffff16815260200190815260200160002081905550611562826001546131f590919063ffffffff16565b6001819055508073ffffffffffffffffffffffffffffffffffffffff167fcc16f5dbb4873280815c1ee09dbd06736cffcc184412cf7a71a0fdb75d397ca5836040518082815260200191505060405180910390a2600073ffffffffffffffffffffffffffffffffffffffff168173ffffffffffffffffffffffffffffffffffffffff167fddf252ad1be2c89b69c2b068fc378daa952ba7f163c4a11628f55a4df523b3ef846040518082815260200191505060405180910390a35050565b601681565b600960159054906101000a900460ff1681565b6040805190810160405280600581526020017f455243323000000000000000000000000000000000000000000000000000000081525081565b6000806000600360009054906101000a900473ffffffffffffffffffffffffffffffffffffffff1673ffffffffffffffffffffffffffffffffffffffff163373ffffffffffffffffffffffffffffffffffffffff161415156116d257600080fd5b600073ffffffffffffffffffffffffffffffffffffffff168473ffffffffffffffffffffffffffffffffffffffff161415151561170e57600080fd5b600960169054906101000a900460ff1615151561172a57600080fd5b83600960006101000a81548173ffffffffffffffffffffffffffffffffffffffff021916908373ffffffffffffffffffffffffffffffffffffffff1602179055508373ffffffffffffffffffffffffffffffffffffffff1663355274ea6040518163ffffffff167c0100000000000000000000000000000000000000000000000000000000028152600401602060405180830381600087803b15156117ce57600080fd5b5af115156117db57600080fd5b5050506040518051905092508373ffffffffffffffffffffffffffffffffffffffff16632c4e722e6040518163ffffffff167c0100000000000000000000000000000000000000000000000000000000028152600401602060405180830381600087803b151561184a57600080fd5b5af1151561185757600080fd5b505050604051805190509150611876828461320e90919063ffffffff16565b90506118a4600960009054906101000a900473ffffffffffffffffffffffffffffffffffffffff1682612687565b508373ffffffffffffffffffffffffffffffffffffffff1663f613a6876040518163ffffffff167c0100000000000000000000000000000000000000000000000000000000028152600401602060405180830381600087803b151561190857600080fd5b5af1151561191557600080fd5b50505060405180519050151561192a57600080fd5b6001600960166101000a81548160ff02191690831515021790555050505050565b600080600260003373ffffffffffffffffffffffffffffffffffffffff1673ffffffffffffffffffffffffffffffffffffffff16815260200190815260200160002060008573ffffffffffffffffffffffffffffffffffffffff1673ffffffffffffffffffffffffffffffffffffffff16815260200190815260200160002054905080831115611a5c576000600260003373ffffffffffffffffffffffffffffffffffffffff1673ffffffffffffffffffffffffffffffffffffffff16815260200190815260200160002060008673ffffffffffffffffffffffffffffffffffffffff1673ffffffffffffffffffffffffffffffffffffffff16815260200190815260200160002081905550611af0565b611a6f83826131f590919063ffffffff16565b600260003373ffffffffffffffffffffffffffffffffffffffff1673ffffffffffffffffffffffffffffffffffffffff16815260200190815260200160002060008673ffffffffffffffffffffffffffffffffffffffff1673ffffffffffffffffffffffffffffffffffffffff168152602001908152602001600020819055505b8373ffffffffffffffffffffffffffffffffffffffff163373ffffffffffffffffffffffffffffffffffffffff167f8c5be1e5ebec7d5bd14f71427d1e84f3dd0314c0f7b2291e5b200ac8c7c3b925600260003373ffffffffffffffffffffffffffffffffffffffff1673ffffffffffffffffffffffffffffffffffffffff16815260200190815260200160002060008873ffffffffffffffffffffffffffffffffffffffff1673ffffffffffffffffffffffffffffffffffffffff168152602001908152602001600020546040518082815260200191505060405180910390a3600191505092915050565b60065481565b60008060008373ffffffffffffffffffffffffffffffffffffffff1673ffffffffffffffffffffffffffffffffffffffff168152602001908152602001600020549050919050565b600a81565b6000600360009054906101000a900473ffffffffffffffffffffffffffffffffffffffff1673ffffffffffffffffffffffffffffffffffffffff163373ffffffffffffffffffffffffffffffffffffffff16141515611c8d57600080fd5b600554611ca583600654612e1d90919063ffffffff16565b11151515611cb257600080fd5b611cc782600654612e1d90919063ffffffff16565b600681905550611cd78383612687565b50611d2a82601260008673ffffffffffffffffffffffffffffffffffffffff1673ffffffffffffffffffffffffffffffffffffffff16815260200190815260200160002054612e1d90919063ffffffff16565b601260008573ffffffffffffffffffffffffffffffffffffffff1673ffffffffffffffffffffffffffffffffffffffff168152602001908152602001600020819055508273ffffffffffffffffffffffffffffffffffffffff167f625fed9875dada8643f2418b838ae0bc78d9a148a18eee4ee1979ff0f3f5d427836040518082815260200191505060405180910390a26001905092915050565b6000600360009054906101000a900473ffffffffffffffffffffffffffffffffffffffff1673ffffffffffffffffffffffffffffffffffffffff163373ffffffffffffffffffffffffffffffffffffffff16141515611e2357600080fd5b600360149054906101000a900460ff16151515611e3f57600080fd5b6001600360146101000a81548160ff0219169083151502179055507fae5184fba832cb2b1f702aca6117b8d265eaf03ad33eb133f19dde0f5920fa0860405160405180910390a16001905090565b600081565b600d5481565b600080600080611ea733612cb7565b925060008314158015611eba5750600483105b1515611ec557600080fd5b611ecf8584613249565b9150611ee48286612e1d90919063ffffffff16565b9050611ef08682612687565b50611efc8683856132dc565b6001935050505092915050565b600360009054906101000a900473ffffffffffffffffffffffffffffffffffffffff1681565b6000806000600360009054906101000a900473ffffffffffffffffffffffffffffffffffffffff1673ffffffffffffffffffffffffffffffffffffffff163373ffffffffffffffffffffffffffffffffffffffff16141515611f9057600080fd5b600073ffffffffffffffffffffffffffffffffffffffff168473ffffffffffffffffffffffffffffffffffffffff1614151515611fcc57600080fd5b600960149054906101000a900460ff16151515611fe857600080fd5b83600760006101000a81548173ffffffffffffffffffffffffffffffffffffffff021916908373ffffffffffffffffffffffffffffffffffffffff160217905550600a548473ffffffffffffffffffffffffffffffffffffffff16634b6753bc6040518163ffffffff167c0100000000000000000000000000000000000000000000000000000000028152600401602060405180830381600087803b151561208f57600080fd5b5af1151561209c57600080fd5b5050506040518051905001600d819055508373ffffffffffffffffffffffffffffffffffffffff1663355274ea6040518163ffffffff167c0100000000000000000000000000000000000000000000000000000000028152600401602060405180830381600087803b151561211057600080fd5b5af1151561211d57600080fd5b5050506040518051905092508373ffffffffffffffffffffffffffffffffffffffff16632c4e722e6040518163ffffffff167c0100000000000000000000000000000000000000000000000000000000028152600401602060405180830381600087803b151561218c57600080fd5b5af1151561219957600080fd5b5050506040518051905091506121e16064601e016121d360646121c5868861320e90919063ffffffff16565b61366490919063ffffffff16565b61320e90919063ffffffff16565b905061220f600760009054906101000a900473ffffffffffffffffffffffffffffffffffffffff1682612687565b508373ffffffffffffffffffffffffffffffffffffffff1663f613a6876040518163ffffffff167c0100000000000000000000000000000000000000000000000000000000028152600401602060405180830381600087803b151561227357600080fd5b5af1151561228057600080fd5b50505060405180519050151561229557600080fd5b6001600960146101000a81548160ff02191690831515021790555050505050565b6040805190810160405280600381526020017f4d4145000000000000000000000000000000000000000000000000000000000081525081565b600b5481565b600e5481565b601e81565b6000806000600360009054906101000a900473ffffffffffffffffffffffffffffffffffffffff1673ffffffffffffffffffffffffffffffffffffffff163373ffffffffffffffffffffffffffffffffffffffff1614151561236157600080fd5b600073ffffffffffffffffffffffffffffffffffffffff168473ffffffffffffffffffffffffffffffffffffffff161415151561239d57600080fd5b600960159054906101000a900460ff161515156123b957600080fd5b83600860006101000a81548173ffffffffffffffffffffffffffffffffffffffff021916908373ffffffffffffffffffffffffffffffffffffffff160217905550600b548473ffffffffffffffffffffffffffffffffffffffff16634b6753bc6040518163ffffffff167c0100000000000000000000000000000000000000000000000000000000028152600401602060405180830381600087803b151561246057600080fd5b5af1151561246d57600080fd5b5050506040518051905001600e819055508373ffffffffffffffffffffffffffffffffffffffff1663355274ea6040518163ffffffff167c0100000000000000000000000000000000000000000000000000000000028152600401602060405180830381600087803b15156124e157600080fd5b5af115156124ee57600080fd5b5050506040518051905092508373ffffffffffffffffffffffffffffffffffffffff16632c4e722e6040518163ffffffff167c0100000000000000000000000000000000000000000000000000000000028152600401602060405180830381600087803b151561255d57600080fd5b5af1151561256a57600080fd5b5050506040518051905091506125b26064600a016125a46064612596868861320e90919063ffffffff16565b61366490919063ffffffff16565b61320e90919063ffffffff16565b90506125e0600860009054906101000a900473ffffffffffffffffffffffffffffffffffffffff1682612687565b508373ffffffffffffffffffffffffffffffffffffffff1663f613a6876040518163ffffffff167c0100000000000000000000000000000000000000000000000000000000028152600401602060405180830381600087803b151561264457600080fd5b5af1151561265157600080fd5b50505060405180519050151561266657600080fd5b6001600960156101000a81548160ff02191690831515021790555050505050565b600033826000809050600d544210156126ef576126ec601060008573ffffffffffffffffffffffffffffffffffffffff1673ffffffffffffffffffffffffffffffffffffffff1681526020019081526020016000205482612e1d90919063ffffffff16565b90505b600e5442101561274e5761274b601160008573ffffffffffffffffffffffffffffffffffffffff1673ffffffffffffffffffffffffffffffffffffffff1681526020019081526020016000205482612e1d90919063ffffffff16565b90505b600f544210156127ad576127aa601260008573ffffffffffffffffffffffffffffffffffffffff1673ffffffffffffffffffffffffffffffffffffffff1681526020019081526020016000205482612e1d90919063ffffffff16565b90505b6000808473ffffffffffffffffffffffffffffffffffffffff1673ffffffffffffffffffffffffffffffffffffffff168152602001908152602001600020546127ff8284612e1d90919063ffffffff16565b1115151561280c57600080fd5b612816868661367f565b935050505092915050565b600760009054906101000a900473ffffffffffffffffffffffffffffffffffffffff1681565b600960149054906101000a900460ff1681565b600960169054906101000a900460ff1681565b60006128fe82600260003373ffffffffffffffffffffffffffffffffffffffff1673ffffffffffffffffffffffffffffffffffffffff16815260200190815260200160002060008673ffffffffffffffffffffffffffffffffffffffff1673ffffffffffffffffffffffffffffffffffffffff16815260200190815260200160002054612e1d90919063ffffffff16565b600260003373ffffffffffffffffffffffffffffffffffffffff1673ffffffffffffffffffffffffffffffffffffffff16815260200190815260200160002060008573ffffffffffffffffffffffffffffffffffffffff1673ffffffffffffffffffffffffffffffffffffffff168152602001908152602001600020819055508273ffffffffffffffffffffffffffffffffffffffff163373ffffffffffffffffffffffffffffffffffffffff167f8c5be1e5ebec7d5bd14f71427d1e84f3dd0314c0f7b2291e5b200ac8c7c3b925600260003373ffffffffffffffffffffffffffffffffffffffff1673ffffffffffffffffffffffffffffffffffffffff16815260200190815260200160002060008773ffffffffffffffffffffffffffffffffffffffff1673ffffffffffffffffffffffffffffffffffffffff168152602001908152602001600020546040518082815260200191505060405180910390a36001905092915050565b600860009054906101000a900473ffffffffffffffffffffffffffffffffffffffff1681565b6000600260008473ffffffffffffffffffffffffffffffffffffffff1673ffffffffffffffffffffffffffffffffffffffff16815260200190815260200160002060008373ffffffffffffffffffffffffffffffffffffffff1673ffffffffffffffffffffffffffffffffffffffff16815260200190815260200160002054905092915050565b6000601160008373ffffffffffffffffffffffffffffffffffffffff1673ffffffffffffffffffffffffffffffffffffffff168152602001908152602001600020549050919050565b600360009054906101000a900473ffffffffffffffffffffffffffffffffffffffff1673ffffffffffffffffffffffffffffffffffffffff163373ffffffffffffffffffffffffffffffffffffffff16141515612bbb57600080fd5b600073ffffffffffffffffffffffffffffffffffffffff168173ffffffffffffffffffffffffffffffffffffffff1614151515612bf757600080fd5b8073ffffffffffffffffffffffffffffffffffffffff16600360009054906101000a900473ffffffffffffffffffffffffffffffffffffffff1673ffffffffffffffffffffffffffffffffffffffff167f8be0079c531659141344cd1fd0a4f28419497f9722a3daafe3b4186f6b6457e060405160405180910390a380600360006101000a81548173ffffffffffffffffffffffffffffffffffffffff021916908373ffffffffffffffffffffffffffffffffffffffff16021790555050565b60008073ffffffffffffffffffffffffffffffffffffffff168273ffffffffffffffffffffffffffffffffffffffff161415612cf65760009050612e18565b600760009054906101000a900473ffffffffffffffffffffffffffffffffffffffff1673ffffffffffffffffffffffffffffffffffffffff168273ffffffffffffffffffffffffffffffffffffffff161415612d555760019050612e18565b600860009054906101000a900473ffffffffffffffffffffffffffffffffffffffff1673ffffffffffffffffffffffffffffffffffffffff168273ffffffffffffffffffffffffffffffffffffffff161415612db45760029050612e18565b600960009054906101000a900473ffffffffffffffffffffffffffffffffffffffff1673ffffffffffffffffffffffffffffffffffffffff168273ffffffffffffffffffffffffffffffffffffffff161415612e135760039050612e18565b600090505b919050565b6000808284019050838110151515612e3157fe5b8091505092915050565b60008073ffffffffffffffffffffffffffffffffffffffff168373ffffffffffffffffffffffffffffffffffffffff1614151515612e7857600080fd5b6000808573ffffffffffffffffffffffffffffffffffffffff1673ffffffffffffffffffffffffffffffffffffffff168152602001908152602001600020548211151515612ec557600080fd5b600260008573ffffffffffffffffffffffffffffffffffffffff1673ffffffffffffffffffffffffffffffffffffffff16815260200190815260200160002060003373ffffffffffffffffffffffffffffffffffffffff1673ffffffffffffffffffffffffffffffffffffffff168152602001908152602001600020548211151515612f5057600080fd5b612fa1826000808773ffffffffffffffffffffffffffffffffffffffff1673ffffffffffffffffffffffffffffffffffffffff168152602001908152602001600020546131f590919063ffffffff16565b6000808673ffffffffffffffffffffffffffffffffffffffff1673ffffffffffffffffffffffffffffffffffffffff16815260200190815260200160002081905550613034826000808673ffffffffffffffffffffffffffffffffffffffff1673ffffffffffffffffffffffffffffffffffffffff16815260200190815260200160002054612e1d90919063ffffffff16565b6000808573ffffffffffffffffffffffffffffffffffffffff1673ffffffffffffffffffffffffffffffffffffffff1681526020019081526020016000208190555061310582600260008773ffffffffffffffffffffffffffffffffffffffff1673ffffffffffffffffffffffffffffffffffffffff16815260200190815260200160002060003373ffffffffffffffffffffffffffffffffffffffff1673ffffffffffffffffffffffffffffffffffffffff168152602001908152602001600020546131f590919063ffffffff16565b600260008673ffffffffffffffffffffffffffffffffffffffff1673ffffffffffffffffffffffffffffffffffffffff16815260200190815260200160002060003373ffffffffffffffffffffffffffffffffffffffff1673ffffffffffffffffffffffffffffffffffffffff168152602001908152602001600020819055508273ffffffffffffffffffffffffffffffffffffffff168473ffffffffffffffffffffffffffffffffffffffff167fddf252ad1be2c89b69c2b068fc378daa952ba7f163c4a11628f55a4df523b3ef846040518082815260200191505060405180910390a3600190509392505050565b600082821115151561320357fe5b818303905092915050565b60008060008414156132235760009150613242565b828402905082848281151561323457fe5b0414151561323e57fe5b8091505b5092915050565b600060018214156132825761327b601e61326d60648661366490919063ffffffff16565b61320e90919063ffffffff16565b90506132d6565b60028214156132b9576132b2600a6132a460648661366490919063ffffffff16565b61320e90919063ffffffff16565b90506132d6565b60038214156132cb57600090506132d6565b600015156132d557fe5b5b92915050565b82826000809050600d544210156133425761333f601060008573ffffffffffffffffffffffffffffffffffffffff1673ffffffffffffffffffffffffffffffffffffffff1681526020019081526020016000205482612e1d90919063ffffffff16565b90505b600e544210156133a15761339e601160008573ffffffffffffffffffffffffffffffffffffffff1673ffffffffffffffffffffffffffffffffffffffff1681526020019081526020016000205482612e1d90919063ffffffff16565b90505b600f54421015613400576133fd601260008573ffffffffffffffffffffffffffffffffffffffff1673ffffffffffffffffffffffffffffffffffffffff1681526020019081526020016000205482612e1d90919063ffffffff16565b90505b6000808473ffffffffffffffffffffffffffffffffffffffff1673ffffffffffffffffffffffffffffffffffffffff168152602001908152602001600020546134528284612e1d90919063ffffffff16565b1115151561345f57600080fd5b6001841415613550576134ba85601060008973ffffffffffffffffffffffffffffffffffffffff1673ffffffffffffffffffffffffffffffffffffffff16815260200190815260200160002054612e1d90919063ffffffff16565b601060008873ffffffffffffffffffffffffffffffffffffffff1673ffffffffffffffffffffffffffffffffffffffff168152602001908152602001600020819055508573ffffffffffffffffffffffffffffffffffffffff167f625fed9875dada8643f2418b838ae0bc78d9a148a18eee4ee1979ff0f3f5d427866040518082815260200191505060405180910390a261365b565b6002841415613641576135ab85601160008973ffffffffffffffffffffffffffffffffffffffff1673ffffffffffffffffffffffffffffffffffffffff16815260200190815260200160002054612e1d90919063ffffffff16565b601160008873ffffffffffffffffffffffffffffffffffffffff1673ffffffffffffffffffffffffffffffffffffffff168152602001908152602001600020819055508573ffffffffffffffffffffffffffffffffffffffff167f625fed9875dada8643f2418b838ae0bc78d9a148a18eee4ee1979ff0f3f5d427866040518082815260200191505060405180910390a261365a565b600384141561364f5761365c565b6000151561365957fe5b5b5b5b505050505050565b600080828481151561367257fe5b0490508091505092915050565b60008073ffffffffffffffffffffffffffffffffffffffff168373ffffffffffffffffffffffffffffffffffffffff16141515156136bc57600080fd5b6000803373ffffffffffffffffffffffffffffffffffffffff1673ffffffffffffffffffffffffffffffffffffffff16815260200190815260200160002054821115151561370957600080fd5b61375a826000803373ffffffffffffffffffffffffffffffffffffffff1673ffffffffffffffffffffffffffffffffffffffff168152602001908152602001600020546131f590919063ffffffff16565b6000803373ffffffffffffffffffffffffffffffffffffffff1673ffffffffffffffffffffffffffffffffffffffff168152602001908152602001600020819055506137ed826000808673ffffffffffffffffffffffffffffffffffffffff1673ffffffffffffffffffffffffffffffffffffffff16815260200190815260200160002054612e1d90919063ffffffff16565b6000808573ffffffffffffffffffffffffffffffffffffffff1673ffffffffffffffffffffffffffffffffffffffff168152602001908152602001600020819055508273ffffffffffffffffffffffffffffffffffffffff163373ffffffffffffffffffffffffffffffffffffffff167fddf252ad1be2c89b69c2b068fc378daa952ba7f163c4a11628f55a4df523b3ef846040518082815260200191505060405180910390a360019050929150505600a165627a7a72305820d6d1bcd3d70c5a5dfee9ceef94d3274dead3911e78f888ab195e6f2cda8c9f6d0029",
  "source": "pragma solidity ^0.4.21;\n\nimport \"zeppelin-solidity/contracts/token/ERC20/BurnableToken.sol\";\nimport \"zeppelin-solidity/contracts/token/ERC20/MintableToken.sol\";\n\nimport \"./MaestroCrowdsale.sol\";\n\n\n/**\n * The main contract for Maestro token\n */\ncontract MaestroToken is BurnableToken, MintableToken {\n\n    string public constant standard = \"ERC20\";\n    string public constant name     = \"Maestro Token\";\n    string public constant symbol   = \"MAE\";\n    uint8 public constant decimals  = 18;\n\n    uint256 public initialSupply;\n    uint256 public totalTeamSupply;\n    uint256 public cumulativeTeamSupply = 0;\n    // {uint256 totalSupply_} is also a global variable called by totalSupply()\n\n    /* Bonus rates */\n    uint public constant BONUS_S1 = 30;\n    uint public constant BONUS_S2 = 10;\n    uint public constant BONUS_S3 = 0;\n    uint public constant TEAM_PERCENT = 22;\n\n    /* Crowdsale addresses and flags */\n    address public crowdsaleS1Address;\n    address public crowdsaleS2Address;\n    address public crowdsaleS3Address;\n    bool public crowdsaleS1Flag = false;\n    bool public crowdsaleS2Flag = false;\n    bool public crowdsaleS3Flag = false;\n\n    /* Lockup durations and release dates */\n    uint public lockupDurationS1;   // Unit is days\n    uint public lockupDurationS2;   // Unit is days\n    uint public lockupDurationTeam; // Unit is days\n    uint public releaseDateS1 = 0;\n    uint public releaseDateS2 = 0;\n    uint public releaseDateTeam = 0;\n\n    /* Mapping to keep track of lockup of each address */\n    mapping(address => uint256) internal lockupS1;\n    mapping(address => uint256) internal lockupS2;\n    mapping(address => uint256) internal lockupTeam;\n\n    /* Events */\n    event Lock(address indexed _tokenHolder, uint256 _value);\n\n    /**\n     * Disallows transferring locked tokens\n     */\n    modifier checkLockup(address _from, uint256 _value) {\n        uint256 totalLockup = 0;\n\n        if (now < releaseDateS1) {\n            totalLockup = totalLockup.add(lockupS1[_from]);\n        } \n        if (now < releaseDateS2) {\n            totalLockup = totalLockup.add(lockupS2[_from]);\n        } \n        if (now < releaseDateTeam) {\n            totalLockup = totalLockup.add(lockupTeam[_from]);\n        }\n\n        require(_value.add(totalLockup) <= balances[_from]);\n        _;\n    }\n\n    /**\n     * Constructor\n     * Note that {_initialSupplyWithoutDecimals} is amount before multiplying by {10 ** decimals}\n     * For example, if {_initialSupplyWithoutDecimals == 999} then {initialSupply == 999 * (10 ** decimals)}\n     * This is so that we make sure the initial supply is divisible by {10 ** decimals}\n     * Unit of lockup duration variables is days\n     */\n    function MaestroToken(\n        uint256 _initialSupplyWithoutDecimals,\n        uint _lockupDurationS1,\n        uint _lockupDurationS2,\n        uint _lockupDurationTeam\n    ) \n        public \n    {\n        initialSupply = _initialSupplyWithoutDecimals.mul(10 ** uint256(decimals));\n        totalTeamSupply = initialSupply.div(100).mul(TEAM_PERCENT);\n\n        lockupDurationS1 = (_lockupDurationS1 * 1 days);\n        lockupDurationS2 = (_lockupDurationS2 * 1 days);\n        lockupDurationTeam = (_lockupDurationTeam * 1 days);\n\n        releaseDateTeam = now + lockupDurationTeam;\n\n        // In BasicToken.sol\n        // Current total supply of tokens, can be increased by mint() or decreased by burn()\n        totalSupply_ = initialSupply;\n\n        balances[msg.sender] = initialSupply;  // Give the creator all initial tokens\n        emit Transfer(address(0), msg.sender, initialSupply);\n    }\n\n    /*************************/\n    /*                       */\n    /*  Overriden Functions  */\n    /*                       */\n    /*************************/\n\n    /**\n     * Override BasicToken.transfer()\n     */\n    function transfer(address _to, uint256 _value) public checkLockup(msg.sender, _value) returns (bool) {\n        return super.transfer(_to, _value);\n    }\n\n    /**\n     * Override StandardToken.transferFrom()\n     */\n    function transferFrom(address _from, address _to, uint256 _value) public checkLockup(_from, _value) returns (bool) {\n        return super.transferFrom(_from, _to, _value);\n    }\n\n    /*************************/\n    /*                       */\n    /*    Other Functions    */\n    /*                       */\n    /*************************/\n\n    /**\n     * Return S1 lockup of {_owner} - can only be called by owner\n     */\n    function getLockupS1(address _owner) public view returns (uint256) {\n        return lockupS1[_owner];\n    }\n\n    /**\n     * Return S2 lockup of {_owner} - can only be called by owner\n     */\n    function getLockupS2(address _owner) public view returns (uint256) {\n        return lockupS2[_owner];\n    }\n\n    /**\n     * Return S2 lockup of {_owner} - can only be called by owner\n     */\n    function getLockupTeam(address _owner) public view returns (uint256) {\n        return lockupTeam[_owner];\n    }\n\n    /**\n     * Set address of CrowdsaleS1\n     */\n    function setCrowdsaleS1(address _address) public onlyOwner {\n        require(_address != address(0));\n        require(!crowdsaleS1Flag);\n\n        crowdsaleS1Address = _address;\n        releaseDateS1 = MaestroCrowdsale(_address).closingTime() + lockupDurationS1;\n\n        uint256 cap = MaestroCrowdsale(_address).cap();\n        uint256 rate = MaestroCrowdsale(_address).rate();\n        uint256 tokenAmount = cap.mul(rate).div(100).mul(BONUS_S1 + 100);\n        transfer(crowdsaleS1Address, tokenAmount);\n\n        require(MaestroCrowdsale(_address).returnTrue());\n        crowdsaleS1Flag = true;\n    }\n\n    /**\n     * Set address of CrowdsaleS2\n     */\n    function setCrowdsaleS2(address _address) public onlyOwner {\n        require(_address != address(0));\n        require(!crowdsaleS2Flag);\n\n        crowdsaleS2Address = _address;\n        releaseDateS2 = MaestroCrowdsale(_address).closingTime() + lockupDurationS2;\n\n        uint256 cap = MaestroCrowdsale(_address).cap();\n        uint256 rate = MaestroCrowdsale(_address).rate();\n        uint256 tokenAmount = cap.mul(rate).div(100).mul(BONUS_S2 + 100);\n        transfer(crowdsaleS2Address, tokenAmount);\n\n        require(MaestroCrowdsale(_address).returnTrue());\n        crowdsaleS2Flag = true;\n    }\n\n    /**\n     * Set address of CrowdsaleS3\n     */\n    function setCrowdsaleS3(address _address) public onlyOwner {\n        require(_address != address(0));\n        require(!crowdsaleS3Flag);\n\n        crowdsaleS3Address = _address;\n\n        uint256 cap = MaestroCrowdsale(_address).cap();\n        uint256 rate = MaestroCrowdsale(_address).rate();\n        uint256 tokenAmount = cap.mul(rate);\n        transfer(crowdsaleS3Address, tokenAmount);\n\n        require(MaestroCrowdsale(_address).returnTrue());\n        crowdsaleS3Flag = true;\n    }\n\n    /**\n     * Get crowdsale number, return 0 otherwise\n     */\n    function getCrowdsaleNumber(address _sender) internal view returns (uint) {\n        if (_sender == address(0))\n            return 0;\n\n        if (_sender == crowdsaleS1Address)\n            return 1;\n\n        if (_sender == crowdsaleS2Address)\n            return 2;\n\n        if (_sender == crowdsaleS3Address)\n            return 3;\n\n        return 0;\n    }\n\n    /**\n     * Calculates bonus according to season\n     * Crowdsale number must be 1, 2, or 3\n     */\n    function calculateBonus(uint256 _amount, uint _crowdsaleNumber) internal pure returns (uint256) {\n        if (_crowdsaleNumber == 1)\n            return _amount.div(100).mul(BONUS_S1);\n\n        if (_crowdsaleNumber == 2)\n            return _amount.div(100).mul(BONUS_S2);\n\n        if (_crowdsaleNumber == 3)\n            return 0;\n\n        assert(false);\n    }\n\n    /**\n     * Increase amount of locked tokens of {_tokenHolder} by {_value}\n     * Crowdsale number must be 1, 2, or 3\n     * Total lockup cannot be more than balance\n     */\n    function lockTokens(address _tokenHolder, uint256 _value, uint _crowdsaleNumber) internal checkLockup(_tokenHolder, _value) {\n        if (_crowdsaleNumber == 1) {\n            lockupS1[_tokenHolder] = lockupS1[_tokenHolder].add(_value);\n            emit Lock(_tokenHolder, _value);\n        } else if (_crowdsaleNumber == 2) {\n            lockupS2[_tokenHolder] = lockupS2[_tokenHolder].add(_value);\n            emit Lock(_tokenHolder, _value);\n        } else if (_crowdsaleNumber == 3) {\n            return;\n        } else {\n            assert(false);\n        }\n    }\n\n\n    /** \n     * Transfers and locks up an amount\n     * Used to lockup team reserve by owner\n     */\n    function transferToTeam(address _beneficiary, uint256 _amount) public onlyOwner returns (bool) {\n        require(cumulativeTeamSupply.add(_amount) <= totalTeamSupply);\n        cumulativeTeamSupply = cumulativeTeamSupply.add(_amount);\n\n        transfer(_beneficiary, _amount);\n\n        // From Solhint: Possible reentrancy vulnerabilities. Avoid state changes after transfer\n        lockupTeam[_beneficiary] = lockupTeam[_beneficiary].add(_amount);\n        emit Lock(_beneficiary, _amount);\n\n        return true;\n    }\n\n    /**\n     * Transfers an amount with bonus and locks up the bonus\n     * Called only from the CrowdsaleS1 contract\n     */\n    function buyTokensFromCrowdsale(address _beneficiary, uint256 _amount) public returns (bool) {\n        uint crowdsaleNumber = getCrowdsaleNumber(msg.sender);\n        require(crowdsaleNumber != 0 && crowdsaleNumber < 4);\n\n        uint256 bonus = calculateBonus(_amount, crowdsaleNumber);\n        uint256 amountWithBonus = _amount.add(bonus);\n\n        transfer(_beneficiary, amountWithBonus);\n        lockTokens(_beneficiary, bonus, crowdsaleNumber);\n\n        return true;\n    }\n\n    /**\n     * Burns remaining balance that crowdsale has\n     * Called when crowdsale ends\n     */\n    function burnRemainingTokensFromCrowdsale() public returns (bool) {\n        uint crowdsaleNumber = getCrowdsaleNumber(msg.sender);\n        require(crowdsaleNumber != 0 && crowdsaleNumber < 4);\n\n        uint256 balance = balances[msg.sender];\n        burn(balance);\n\n        return true;\n    }\n}\n",
  "sourcePath": "/Users/chan/Desktop/dev/maestro-token-dev/contracts/MaestroToken.sol",
  "compiler": {
    "name": "solc",
    "version": "0.4.21+commit.dfe3193c.Emscripten.clang"
  },
  "schemaVersion": "2.0.0",
  "updatedAt": "2018-06-13T08:22:35.275Z"
}