{
  "contractName": "MaestroCrowdsale",
  "abi": [
    {
      "constant": true,
      "inputs": [],
      "name": "rate",
      "outputs": [
        {
          "name": "",
          "type": "uint256"
        }
      ],
      "payable": false,
      "stateMutability": "view",
      "type": "function"
    },
    {
      "constant": true,
      "inputs": [],
      "name": "cap",
      "outputs": [
        {
          "name": "",
          "type": "uint256"
        }
      ],
      "payable": false,
      "stateMutability": "view",
      "type": "function"
    },
    {
      "constant": true,
      "inputs": [],
      "name": "weiRaised",
      "outputs": [
        {
          "name": "",
          "type": "uint256"
        }
      ],
      "payable": false,
      "stateMutability": "view",
      "type": "function"
    },
    {
      "constant": true,
      "inputs": [],
      "name": "closingTime",
      "outputs": [
        {
          "name": "",
          "type": "uint256"
        }
      ],
      "payable": false,
      "stateMutability": "view",
      "type": "function"
    },
    {
      "constant": true,
      "inputs": [],
      "name": "wallet",
      "outputs": [
        {
          "name": "",
          "type": "address"
        }
      ],
      "payable": false,
      "stateMutability": "view",
      "type": "function"
    },
    {
      "constant": true,
      "inputs": [],
      "name": "isFinalized",
      "outputs": [
        {
          "name": "",
          "type": "bool"
        }
      ],
      "payable": false,
      "stateMutability": "view",
      "type": "function"
    },
    {
      "constant": true,
      "inputs": [],
      "name": "owner",
      "outputs": [
        {
          "name": "",
          "type": "address"
        }
      ],
      "payable": false,
      "stateMutability": "view",
      "type": "function"
    },
    {
      "constant": true,
      "inputs": [
        {
          "name": "",
          "type": "address"
        }
      ],
      "name": "whitelist",
      "outputs": [
        {
          "name": "",
          "type": "bool"
        }
      ],
      "payable": false,
      "stateMutability": "view",
      "type": "function"
    },
    {
      "constant": true,
      "inputs": [],
      "name": "openingTime",
      "outputs": [
        {
          "name": "",
          "type": "uint256"
        }
      ],
      "payable": false,
      "stateMutability": "view",
      "type": "function"
    },
    {
      "constant": true,
      "inputs": [],
      "name": "token",
      "outputs": [
        {
          "name": "",
          "type": "address"
        }
      ],
      "payable": false,
      "stateMutability": "view",
      "type": "function"
    },
    {
      "inputs": [
        {
          "name": "_openingTime",
          "type": "uint256"
        },
        {
          "name": "_closingTime",
          "type": "uint256"
        },
        {
          "name": "_rate",
          "type": "uint256"
        },
        {
          "name": "_wallet",
          "type": "address"
        },
        {
          "name": "_cap",
          "type": "uint256"
        },
        {
          "name": "_token",
          "type": "address"
        }
      ],
      "payable": false,
      "stateMutability": "nonpayable",
      "type": "constructor"
    },
    {
      "payable": true,
      "stateMutability": "payable",
      "type": "fallback"
    },
    {
      "anonymous": false,
      "inputs": [
        {
          "indexed": true,
          "name": "previousOwner",
          "type": "address"
        },
        {
          "indexed": true,
          "name": "newOwner",
          "type": "address"
        }
      ],
      "name": "OwnershipTransferred",
      "type": "event"
    },
    {
      "anonymous": false,
      "inputs": [
        {
          "indexed": true,
          "name": "purchaser",
          "type": "address"
        },
        {
          "indexed": true,
          "name": "beneficiary",
          "type": "address"
        },
        {
          "indexed": false,
          "name": "value",
          "type": "uint256"
        },
        {
          "indexed": false,
          "name": "amount",
          "type": "uint256"
        }
      ],
      "name": "TokenPurchase",
      "type": "event"
    },
    {
      "anonymous": false,
      "inputs": [],
      "name": "Finalized",
      "type": "event"
    },
    {
      "constant": false,
      "inputs": [
        {
          "name": "newOwner",
          "type": "address"
        }
      ],
      "name": "transferOwnership",
      "outputs": [],
      "payable": false,
      "stateMutability": "nonpayable",
      "type": "function"
    },
    {
      "constant": false,
      "inputs": [
        {
          "name": "_beneficiary",
          "type": "address"
        }
      ],
      "name": "buyTokens",
      "outputs": [],
      "payable": true,
      "stateMutability": "payable",
      "type": "function"
    },
    {
      "constant": true,
      "inputs": [],
      "name": "hasClosed",
      "outputs": [
        {
          "name": "",
          "type": "bool"
        }
      ],
      "payable": false,
      "stateMutability": "view",
      "type": "function"
    },
    {
      "constant": false,
      "inputs": [],
      "name": "finalize",
      "outputs": [],
      "payable": false,
      "stateMutability": "nonpayable",
      "type": "function"
    },
    {
      "constant": true,
      "inputs": [],
      "name": "capReached",
      "outputs": [
        {
          "name": "",
          "type": "bool"
        }
      ],
      "payable": false,
      "stateMutability": "view",
      "type": "function"
    },
    {
      "constant": false,
      "inputs": [
        {
          "name": "_beneficiary",
          "type": "address"
        }
      ],
      "name": "addToWhitelist",
      "outputs": [],
      "payable": false,
      "stateMutability": "nonpayable",
      "type": "function"
    },
    {
      "constant": false,
      "inputs": [
        {
          "name": "_beneficiaries",
          "type": "address[]"
        }
      ],
      "name": "addManyToWhitelist",
      "outputs": [],
      "payable": false,
      "stateMutability": "nonpayable",
      "type": "function"
    },
    {
      "constant": false,
      "inputs": [
        {
          "name": "_beneficiary",
          "type": "address"
        }
      ],
      "name": "removeFromWhitelist",
      "outputs": [],
      "payable": false,
      "stateMutability": "nonpayable",
      "type": "function"
    },
    {
      "constant": true,
      "inputs": [],
      "name": "returnTrue",
      "outputs": [
        {
          "name": "",
          "type": "bool"
        }
      ],
      "payable": false,
      "stateMutability": "pure",
      "type": "function"
    },
    {
      "constant": false,
      "inputs": [
        {
          "name": "affiliateAddress",
          "type": "address"
        },
        {
          "name": "_rate",
          "type": "uint8"
        },
        {
          "name": "_divider",
          "type": "uint8"
        }
      ],
      "name": "addAffiliate",
      "outputs": [],
      "payable": false,
      "stateMutability": "nonpayable",
      "type": "function"
    },
    {
      "constant": false,
      "inputs": [
        {
          "name": "affiliateAddress",
          "type": "address"
        }
      ],
      "name": "removeAffiliate",
      "outputs": [],
      "payable": false,
      "stateMutability": "nonpayable",
      "type": "function"
    },
    {
      "constant": false,
      "inputs": [
        {
          "name": "affiliate",
          "type": "address"
        }
      ],
      "name": "buyTokensFromAffiliate",
      "outputs": [],
      "payable": true,
      "stateMutability": "payable",
      "type": "function"
    }
  ],
  "bytecode": "0x60606040526000600760006101000a81548160ff021916908315150217905550341561002a57600080fd5b60405160c0806115eb83398101604052808051906020019091908051906020019091908051906020019091908051906020019091908051906020019091908051906020019091905050336000806101000a81548173ffffffffffffffffffffffffffffffffffffffff021916908373ffffffffffffffffffffffffffffffffffffffff1602179055506000841115156100c257600080fd5b600073ffffffffffffffffffffffffffffffffffffffff168373ffffffffffffffffffffffffffffffffffffffff16141515156100fe57600080fd5b600073ffffffffffffffffffffffffffffffffffffffff168173ffffffffffffffffffffffffffffffffffffffff161415151561013a57600080fd5b8360038190555082600260006101000a81548173ffffffffffffffffffffffffffffffffffffffff021916908373ffffffffffffffffffffffffffffffffffffffff16021790555080600160006101000a81548173ffffffffffffffffffffffffffffffffffffffff021916908373ffffffffffffffffffffffffffffffffffffffff1602179055504286101515156101d257600080fd5b8585101515156101e157600080fd5b85600581905550846006819055506000821115156101fe57600080fd5b816008819055505050505050506113d18061021a6000396000f300606060405260043610610128576000357c0100000000000000000000000000000000000000000000000000000000900463ffffffff1680631515bc2b146101335780632c4e722e14610160578063355274ea146101895780633b9ff843146101b25780634042b66f146101eb5780634b6753bc146102145780634bb278f31461023d5780634f93594514610252578063521eb2731461027f5780638ab1d681146102d45780638c10671c1461030d5780638d4e40831461033b5780638da5cb5b14610368578063935357cb146103bd5780639b19251a1461040e578063b7a8807c1461045f578063e43252d714610488578063eb5ff852146104c1578063ec8ac4d8146104ef578063f2fde38b1461051d578063f613a68714610556578063fc0c546a14610583575b610131336105d8565b005b341561013e57600080fd5b610146610692565b604051808215151515815260200191505060405180910390f35b341561016b57600080fd5b61017361069e565b6040518082815260200191505060405180910390f35b341561019457600080fd5b61019c6106a4565b6040518082815260200191505060405180910390f35b34156101bd57600080fd5b6101e9600480803573ffffffffffffffffffffffffffffffffffffffff169060200190919050506106aa565b005b34156101f657600080fd5b6101fe610763565b6040518082815260200191505060405180910390f35b341561021f57600080fd5b610227610769565b6040518082815260200191505060405180910390f35b341561024857600080fd5b61025061076f565b005b341561025d57600080fd5b61026561084a565b604051808215151515815260200191505060405180910390f35b341561028a57600080fd5b610292610859565b604051808273ffffffffffffffffffffffffffffffffffffffff1673ffffffffffffffffffffffffffffffffffffffff16815260200191505060405180910390f35b34156102df57600080fd5b61030b600480803573ffffffffffffffffffffffffffffffffffffffff1690602001909190505061087f565b005b341561031857600080fd5b61033960048080359060200190820180359060200191909192905050610935565b005b341561034657600080fd5b61034e610a36565b604051808215151515815260200191505060405180910390f35b341561037357600080fd5b61037b610a49565b604051808273ffffffffffffffffffffffffffffffffffffffff1673ffffffffffffffffffffffffffffffffffffffff16815260200191505060405180910390f35b34156103c857600080fd5b61040c600480803573ffffffffffffffffffffffffffffffffffffffff1690602001909190803560ff1690602001909190803560ff16906020019091905050610a6e565b005b341561041957600080fd5b610445600480803573ffffffffffffffffffffffffffffffffffffffff16906020019091905050610b97565b604051808215151515815260200191505060405180910390f35b341561046a57600080fd5b610472610bb7565b6040518082815260200191505060405180910390f35b341561049357600080fd5b6104bf600480803573ffffffffffffffffffffffffffffffffffffffff16906020019091905050610bbd565b005b6104ed600480803573ffffffffffffffffffffffffffffffffffffffff16906020019091905050610c73565b005b61051b600480803573ffffffffffffffffffffffffffffffffffffffff169060200190919050506105d8565b005b341561052857600080fd5b610554600480803573ffffffffffffffffffffffffffffffffffffffff16906020019091905050610e91565b005b341561056157600080fd5b610569610fe6565b604051808215151515815260200191505060405180910390f35b341561058e57600080fd5b610596610fef565b604051808273ffffffffffffffffffffffffffffffffffffffff1673ffffffffffffffffffffffffffffffffffffffff16815260200191505060405180910390f35b6000803491506105e88383611015565b6105f182611103565b90506106088260045461112190919063ffffffff16565b600481905550610618838261113f565b8273ffffffffffffffffffffffffffffffffffffffff163373ffffffffffffffffffffffffffffffffffffffff167f623b3804fa71d67900d064613da8f94b9617215ee90799290593e1745087ad188484604051808381526020018281526020019250505060405180910390a361068d611229565b505050565b60006006544211905090565b60035481565b60085481565b6000809054906101000a900473ffffffffffffffffffffffffffffffffffffffff1673ffffffffffffffffffffffffffffffffffffffff163373ffffffffffffffffffffffffffffffffffffffff1614151561070557600080fd5b6000600a60008373ffffffffffffffffffffffffffffffffffffffff1673ffffffffffffffffffffffffffffffffffffffff16815260200190815260200160002060000160026101000a81548160ff02191690831515021790555050565b60045481565b60065481565b6000809054906101000a900473ffffffffffffffffffffffffffffffffffffffff1673ffffffffffffffffffffffffffffffffffffffff163373ffffffffffffffffffffffffffffffffffffffff161415156107ca57600080fd5b600760009054906101000a900460ff161515156107e657600080fd5b6107ee610692565b15156107f957600080fd5b61080161128d565b7f6823b073d48d6e3a7d385eeb601452d680e74bb46afe3255a7d778f3a9b1768160405160405180910390a16001600760006101000a81548160ff021916908315150217905550565b60006008546004541015905090565b600260009054906101000a900473ffffffffffffffffffffffffffffffffffffffff1681565b6000809054906101000a900473ffffffffffffffffffffffffffffffffffffffff1673ffffffffffffffffffffffffffffffffffffffff163373ffffffffffffffffffffffffffffffffffffffff161415156108da57600080fd5b6000600960008373ffffffffffffffffffffffffffffffffffffffff1673ffffffffffffffffffffffffffffffffffffffff16815260200190815260200160002060006101000a81548160ff02191690831515021790555050565b60008060009054906101000a900473ffffffffffffffffffffffffffffffffffffffff1673ffffffffffffffffffffffffffffffffffffffff163373ffffffffffffffffffffffffffffffffffffffff1614151561099257600080fd5b600090505b82829050811015610a315760016009600085858581811015156109b657fe5b9050602002013573ffffffffffffffffffffffffffffffffffffffff1673ffffffffffffffffffffffffffffffffffffffff1673ffffffffffffffffffffffffffffffffffffffff16815260200190815260200160002060006101000a81548160ff0219169083151502179055508080600101915050610997565b505050565b600760009054906101000a900460ff1681565b6000809054906101000a900473ffffffffffffffffffffffffffffffffffffffff1681565b6000809054906101000a900473ffffffffffffffffffffffffffffffffffffffff1673ffffffffffffffffffffffffffffffffffffffff163373ffffffffffffffffffffffffffffffffffffffff16141515610ac957600080fd5b6060604051908101604052808360ff1681526020018260ff16815260200160011515815250600a60008573ffffffffffffffffffffffffffffffffffffffff1673ffffffffffffffffffffffffffffffffffffffff16815260200190815260200160002060008201518160000160006101000a81548160ff021916908360ff16021790555060208201518160000160016101000a81548160ff021916908360ff16021790555060408201518160000160026101000a81548160ff021916908315150217905550905050505050565b60096020528060005260406000206000915054906101000a900460ff1681565b60055481565b6000809054906101000a900473ffffffffffffffffffffffffffffffffffffffff1673ffffffffffffffffffffffffffffffffffffffff163373ffffffffffffffffffffffffffffffffffffffff16141515610c1857600080fd5b6001600960008373ffffffffffffffffffffffffffffffffffffffff1673ffffffffffffffffffffffffffffffffffffffff16815260200190815260200160002060006101000a81548160ff02191690831515021790555050565b6000806000806000349450339350600a60008773ffffffffffffffffffffffffffffffffffffffff1673ffffffffffffffffffffffffffffffffffffffff16815260200190815260200160002092508260000160029054906101000a900460ff161515610cdf57600080fd5b610ce98486611015565b610cf285611103565b9150610d098560045461112190919063ffffffff16565b600481905550610d19848361113f565b8373ffffffffffffffffffffffffffffffffffffffff163373ffffffffffffffffffffffffffffffffffffffff167f623b3804fa71d67900d064613da8f94b9617215ee90799290593e1745087ad188785604051808381526020018281526020019250505060405180910390a3610dd38360000160019054906101000a900460ff1660ff16610dc58560000160009054906101000a900460ff1660ff163461133690919063ffffffff16565b61137190919063ffffffff16565b90508573ffffffffffffffffffffffffffffffffffffffff166108fc829081150290604051600060405180830381858888f193505050501515610e1557600080fd5b600260009054906101000a900473ffffffffffffffffffffffffffffffffffffffff1673ffffffffffffffffffffffffffffffffffffffff166108fc610e64833461138c90919063ffffffff16565b9081150290604051600060405180830381858888f193505050501515610e8957600080fd5b505050505050565b6000809054906101000a900473ffffffffffffffffffffffffffffffffffffffff1673ffffffffffffffffffffffffffffffffffffffff163373ffffffffffffffffffffffffffffffffffffffff16141515610eec57600080fd5b600073ffffffffffffffffffffffffffffffffffffffff168173ffffffffffffffffffffffffffffffffffffffff1614151515610f2857600080fd5b8073ffffffffffffffffffffffffffffffffffffffff166000809054906101000a900473ffffffffffffffffffffffffffffffffffffffff1673ffffffffffffffffffffffffffffffffffffffff167f8be0079c531659141344cd1fd0a4f28419497f9722a3daafe3b4186f6b6457e060405160405180910390a3806000806101000a81548173ffffffffffffffffffffffffffffffffffffffff021916908373ffffffffffffffffffffffffffffffffffffffff16021790555050565b60006001905090565b600160009054906101000a900473ffffffffffffffffffffffffffffffffffffffff1681565b600554421015801561102957506006544211155b151561103457600080fd5b81600960008273ffffffffffffffffffffffffffffffffffffffff1673ffffffffffffffffffffffffffffffffffffffff16815260200190815260200160002060009054906101000a900460ff16151561108d57600080fd5b600073ffffffffffffffffffffffffffffffffffffffff168373ffffffffffffffffffffffffffffffffffffffff16141515156110c957600080fd5b600082141515156110d957600080fd5b6008546110f18360045461112190919063ffffffff16565b111515156110fe57600080fd5b505050565b600061111a6003548361133690919063ffffffff16565b9050919050565b600080828401905083811015151561113557fe5b8091505092915050565b600160009054906101000a900473ffffffffffffffffffffffffffffffffffffffff1673ffffffffffffffffffffffffffffffffffffffff16638a7edca683836040518363ffffffff167c0100000000000000000000000000000000000000000000000000000000028152600401808373ffffffffffffffffffffffffffffffffffffffff1673ffffffffffffffffffffffffffffffffffffffff16815260200182815260200192505050602060405180830381600087803b151561120357600080fd5b5af1151561121057600080fd5b50505060405180519050151561122557600080fd5b5050565b600260009054906101000a900473ffffffffffffffffffffffffffffffffffffffff1673ffffffffffffffffffffffffffffffffffffffff166108fc349081150290604051600060405180830381858888f19350505050151561128b57600080fd5b565b600160009054906101000a900473ffffffffffffffffffffffffffffffffffffffff1673ffffffffffffffffffffffffffffffffffffffff166306275b736040518163ffffffff167c0100000000000000000000000000000000000000000000000000000000028152600401602060405180830381600087803b151561131257600080fd5b5af1151561131f57600080fd5b50505060405180519050151561133457600080fd5b565b600080600084141561134b576000915061136a565b828402905082848281151561135c57fe5b0414151561136657fe5b8091505b5092915050565b600080828481151561137f57fe5b0490508091505092915050565b600082821115151561139a57fe5b8183039050929150505600a165627a7a7230582064edebfb05ad096c6e33d7c3b93ba1eded45c5cdf8093946b9e3e0ba7cde6b630029",
  "source": "pragma solidity ^0.4.21;\n\nimport \"./MaestroToken.sol\";\n\n\n/**\n * Maestro Crowdsale\n */\ncontract MaestroCrowdsale {\n    using SafeMath for uint256;\n\n    /*************************/\n    /*                       */\n    /*        Ownable        */\n    /*                       */\n    /*************************/\n\n    address public owner;\n\n    event OwnershipTransferred(address indexed previousOwner, address indexed newOwner);\n\n    modifier onlyOwner() {\n        require(msg.sender == owner);\n        _;\n    }\n\n    function transferOwnership(address newOwner) public onlyOwner {\n        require(newOwner != address(0));\n        emit OwnershipTransferred(owner, newOwner);\n        owner = newOwner;\n    }\n\n    /*************************/\n    /*                       */\n    /*       Crowdsale       */\n    /*                       */\n    /*************************/\n\n    address public token;\n    address public wallet;\n    uint256 public rate;\n    uint256 public weiRaised;\n\n    event TokenPurchase(address indexed purchaser, address indexed beneficiary, uint256 value, uint256 amount);\n\n    function () external payable {\n        buyTokens(msg.sender);\n    }\n\n    function buyTokens(address _beneficiary) public payable {\n\n        uint256 weiAmount = msg.value;\n        _preValidatePurchase(_beneficiary, weiAmount);\n\n        // calculate token amount to be created\n        uint256 tokens = _getTokenAmount(weiAmount);\n\n        // update state\n        weiRaised = weiRaised.add(weiAmount);\n\n        _processPurchase(_beneficiary, tokens);\n        emit TokenPurchase(\n            msg.sender,\n            _beneficiary,\n            weiAmount,\n            tokens\n        );\n\n        _forwardFunds();\n    }\n\n    function _getTokenAmount(uint256 _weiAmount) internal view returns (uint256) {\n        return _weiAmount.mul(rate);\n    }\n\n    function _forwardFunds() internal {\n        wallet.transfer(msg.value);\n    }\n\n    /*************************/\n    /*                       */\n    /*     TimedCrowdsale    */\n    /*                       */\n    /*************************/\n\n    uint256 public openingTime;\n    uint256 public closingTime;\n\n    modifier onlyWhileOpen {\n        require(block.timestamp >= openingTime && block.timestamp <= closingTime);\n        _;\n    }\n\n    function hasClosed() public view returns (bool) {\n        return block.timestamp > closingTime;\n    }\n\n    /**************************/\n    /*                        */\n    /*  FinalizableCrowdsale  */\n    /*                        */\n    /**************************/\n\n    bool public isFinalized = false;\n\n    event Finalized();\n\n    function finalize() public onlyOwner {\n        require(!isFinalized);\n        require(hasClosed());\n\n        finalization();\n        emit Finalized();\n\n        isFinalized = true;\n    }\n\n    /*************************/\n    /*                       */\n    /*    CappedCrowdsale    */\n    /*                       */\n    /*************************/\n\n    uint256 public cap;\n\n    function capReached() public view returns (bool) {\n        return weiRaised >= cap;\n    }\n\n    /***************************/\n    /*                         */\n    /*   WhitelistedCrowdsale  */\n    /*                         */\n    /***************************/\n\n    mapping(address => bool) public whitelist;\n\n    modifier isWhitelisted(address _beneficiary) {\n        require(whitelist[_beneficiary]);\n        _;\n    }\n\n    function addToWhitelist(address _beneficiary) external onlyOwner {\n        whitelist[_beneficiary] = true;\n    }\n\n    function addManyToWhitelist(address[] _beneficiaries) external onlyOwner {\n        for (uint256 i = 0; i < _beneficiaries.length; i++) {\n            whitelist[_beneficiaries[i]] = true;\n        }\n    }\n\n    function removeFromWhitelist(address _beneficiary) external onlyOwner {\n        whitelist[_beneficiary] = false;\n    }\n\n    /**\n     * Constructor\n     * Variables from inherited contracts\n     * {rate, wallet, token} from Crowdsale.sol\n     * {cap} from CappedCrowdsale.sol\n     * {openingTime, closingTime} from TimedCrowdsale.sol\n     */\n    function MaestroCrowdsale(\n        uint256 _openingTime,           // Opening time in timestamp\n        uint256 _closingTime,           // Closing time in timestamp\n        uint256 _rate,                  // How many token units a buyer gets per wei\n        address _wallet,                // Address where funds are collected\n        uint256 _cap,                   // Max amount of wei to be contributed\n        address _token                    // The token being sold\n    )\n        public\n    {\n        /* Ownable */\n        owner = msg.sender;\n\n        /* Crowdsale */\n        require(_rate > 0);\n        require(_wallet != address(0));\n        require(_token != address(0));\n\n        rate = _rate;\n        wallet = _wallet;\n        token = _token;\n\n        /* TimedCrowdsale */\n        require(_openingTime >= now);\n        require(_closingTime >= _openingTime);\n\n        openingTime = _openingTime;\n        closingTime = _closingTime;\n\n        /* CappedCrowdsale */\n        require(_cap > 0);\n\n        cap = _cap;\n    }\n\n    /**\n     * Override parent contracts to combine implementation of CappedCrowdsale and TimedCrowdsale\n     */\n    function _preValidatePurchase(address _beneficiary, uint256 _weiAmount) internal onlyWhileOpen isWhitelisted(_beneficiary) {\n        require(_beneficiary != address(0));\n        require(_weiAmount != 0);\n        require(weiRaised.add(_weiAmount) <= cap);\n    }\n\n    /**\n     * Override parent contracts\n     * Unlike parent contracts, it does NOT call internal {_deliverTokens} function\n     * {_tokenAmount} does not include bonus\n     */\n    function _processPurchase(address _beneficiary, uint256 _tokenAmount) internal {\n        require(MaestroToken(token).buyTokensFromCrowdsale(_beneficiary, _tokenAmount));\n    }\n\n    /**\n     * Override from FinalizableCrowdsale to include burning of remaining tokens\n     */\n    function finalization() internal {\n        require(MaestroToken(token).burnRemainingTokensFromCrowdsale());\n    }\n\n    /**\n     * Called by token contract for validation\n     */\n    function returnTrue() public pure returns (bool) {\n        return true;\n    }\n\n\n    /*************************/\n    /*                       */\n    /*    Affiliate(by and)  */\n    /*                       */\n    /*************************/\n\n    struct Affiliate {\n        uint8 rate;\n        uint8 divider;\n        bool allowed;\n    }\n\n    mapping (address => Affiliate) affiliateWhiteList;\n\n    function addAffiliate(address affiliateAddress, uint8 _rate, uint8 _divider) public onlyOwner {\n        affiliateWhiteList[affiliateAddress] = Affiliate(_rate, _divider, true);\n    }\n\n    function removeAffiliate(address affiliateAddress) public onlyOwner {\n        affiliateWhiteList[affiliateAddress].allowed = false;\n    }\n\n    function buyTokensFromAffiliate(address affiliate) public payable {\n        uint256 weiAmount = msg.value;\n        address _beneficiary = msg.sender;\n        Affiliate storage af = affiliateWhiteList[affiliate];\n\n        require(af.allowed);\n        _preValidatePurchase(_beneficiary, weiAmount);\n\n        // calculate token amount to be created\n        uint256 tokens = _getTokenAmount(weiAmount);\n\n        // update state\n        weiRaised = weiRaised.add(weiAmount);\n\n        _processPurchase(_beneficiary, tokens);\n        emit TokenPurchase(msg.sender, _beneficiary, weiAmount, tokens);\n\n        uint256 affiliatePart = msg.value.mul(af.rate).div(af.divider);\n\n        affiliate.transfer(affiliatePart);\n        wallet.transfer(msg.value.sub(affiliatePart));\n    }\n}\n",
  "sourcePath": "/Users/Taegoo/Development/RightChainLabs/maestro-token-dev/contracts/MaestroCrowdsale.sol",
  "compiler": {
    "name": "solc",
    "version": "0.4.21+commit.dfe3193c.Emscripten.clang"
  },
  "schemaVersion": "2.0.0",
  "updatedAt": "2018-06-10T22:24:42.202Z"
}